:100000000C942A000C943F000C943F000C943F0089
:100010000C943F000C943F000C943F000C943F0064
:100020000C943F000C943F000C943F000C943F0054
:100030000C943F000C943F000C943F000C943F0044
:100040000C943F000C943F000C943F000C943F0034
:100050000C943F0011241FBECFE5D4E0DEBFCDBF1E
:1000600010E0A0E6B0E0E0E3F8E202C005900D92F7
:10007000AA36B107D9F70E94410F0C9416140C94BC
:100080000000CF93DF9300D000D0CDB7DEB79A83C6
:1000900089837C836B838B819C81892B09F0C1C10F
:1000A00089819A81892B51F48BE390E02BE330E036
:1000B000F90120812E7FFC01208372C389819A81FE
:1000C000019751F48BE390E02BE330E0F9012081BC
:1000D0002D7FFC01208364C389819A81029751F4AA
:1000E0008BE390E02BE330E0F90120812B7FFC01D2
:1000F000208356C389819A81039751F48BE390E062
:100100002BE330E0F9012081277FFC01208348C3E5
:1001100089819A81049751F48BE390E02BE330E0DE
:10012000F90120812F7EFC0120833AC389819A81C5
:10013000059751F48BE390E02BE330E0F901208147
:100140002F7DFC0120832CC389819A81069751F46D
:100150008BE390E02BE330E0F90120812F7BFC0161
:1001600020831EC389819A81079751F48BE390E025
:100170002BE330E0F90120812F77FC01208310C3AD
:1001800089819A810A9751F488E390E028E330E06E
:10019000F90120812E7FFC01208302C389819A818D
:1001A0000B9751F488E390E028E330E0F9012081D7
:1001B0002D7FFC012083F4C289819A810C9751F430
:1001C00088E390E028E330E0F90120812B7FFC01F7
:1001D0002083E6C289819A810D9751F488E390E0EB
:1001E00028E330E0F9012081277FFC012083D8C279
:1001F00089819A810E9751F488E390E028E330E0FA
:10020000F90120812F7EFC012083CAC289819A8155
:100210000F9751F488E390E028E330E0F901208162
:100220002F7DFC012083BCC289819A81409751F4C3
:1002300088E390E028E330E0F90120812F7BFC0186
:100240002083AEC289819A81419751F488E390E07E
:1002500028E330E0F90120812F77FC012083A0C240
:1002600089819A81449751F485E390E025E330E059
:10027000F90120812E7FFC01208392C289819A811D
:10028000459751F485E390E025E330E0F9012081C2
:100290002D7FFC01208384C289819A81469751F485
:1002A00085E390E025E330E0F90120812B7FFC011C
:1002B000208376C289819A81479751F485E390E043
:1002C00025E330E0F9012081277FFC01208368C20B
:1002D00089819A81489751F485E390E025E330E0E5
:1002E000F90120812F7EFC0120835AC289819A81E5
:1002F000499751F485E390E025E330E0F90120814E
:100300002F7DFC0120834CC289819A814A9751F448
:1003100085E390E025E330E0F90120812F7BFC01AB
:1003200020833EC289819A814B9751F485E390E006
:1003300025E330E0F90120812F77FC01208330C2D2
:1003400089819A814E9751F482E390E022E330E074
:10035000F90120812E7FFC01208322C289819A81AC
:100360004F9751F482E390E022E330E0F9012081DD
:100370002D7FFC01208314C289819A81809751F4DA
:1003800082E390E022E330E0F90120812B7FFC0141
:10039000208306C289819A81819751F482E390E09B
:1003A00022E330E0F9012081277FFC012083F8C19E
:1003B00089819A81829751F482E390E022E330E0D0
:1003C000F90120812F7EFC012083EAC189819A8175
:1003D000839751F482E390E022E330E0F901208139
:1003E0002F7DFC012083DCC189819A81849751F49F
:1003F00082E390E022E330E0F90120812F7BFC01D1
:100400002083CEC189819A81859709F0C9C182E391
:1004100090E022E330E0F90120812F77FC01208376
:10042000BFC189819A81892B51F48BE390E02BE342
:1004300030E0F90120812160FC012083B1C1898174
:100440009A81019751F48BE390E02BE330E0F901BE
:1004500020812260FC012083A3C189819A810297B7
:1004600051F48BE390E02BE330E0F901208124602C
:10047000FC01208395C189819A81039751F48BE314
:1004800090E02BE330E0F90120812860FC0120831B
:1004900087C189819A81049751F48BE390E02BE323
:1004A00030E0F90120812061FC01208379C189813C
:1004B0009A81059751F48BE390E02BE330E0F9014A
:1004C00020812062FC0120836BC189819A8106977B
:1004D00051F48BE390E02BE330E0F90120812064BC
:1004E000FC0120835DC189819A81079751F48BE3D8
:1004F00090E02BE330E0F90120812068FC012083AB
:100500004FC189819A810A9751F488E390E028E3EA
:1005100030E0F90120812160FC01208341C1898103
:100520009A810B9751F488E390E028E330E0F901D9
:1005300020812260FC01208333C189819A810C973C
:1005400051F488E390E028E330E0F9012081246051
:10055000FC01208325C189819A810D9751F488E39C
:1005600090E028E330E0F90120812860FC0120833D
:1005700017C189819A810E9751F488E390E028E3AE
:1005800030E0F90120812061FC01208309C18981CB
:100590009A810F9751F488E390E028E330E0F90165
:1005A00020812062FC012083FBC089819A814097D1
:1005B00051F488E390E028E330E0F90120812064E1
:1005C000FC012083EDC089819A81419751F488E331
:1005D00090E028E330E0F90120812068FC012083CD
:1005E000DFC089819A81449751F485E390E025E347
:1005F00030E0F90120812160FC012083D1C0898194
:100600009A81459751F485E390E025E330E0F901C4
:1006100020812260FC012083C3C089819A81469792
:1006200051F485E390E025E330E0F9012081246076
:10063000FC012083B5C089819A81479751F485E3F5
:1006400090E025E330E0F90120812860FC0120835F
:10065000A7C089819A81489751F485E390E025E30A
:1006600030E0F90120812061FC01208399C089815B
:100670009A81499751F485E390E025E330E0F90150
:1006800020812062FC0120838BC089819A814A9756
:1006900051F485E390E025E330E0F9012081206406
:1006A000FC0120837DC089819A814B9751F485E3B9
:1006B00090E025E330E0F90120812068FC012083EF
:1006C0006FC089819A814E9751F482E390E022E3D2
:1006D00030E0F90120812160FC01208361C0898123
:1006E0009A814F9751F482E390E022E330E0F901E0
:1006F00020812260FC01208353C089819A818097E8
:1007000051F482E390E022E330E0F901208124609B
:10071000FC01208345C089819A81819751F482E34D
:1007200090E022E330E0F90120812860FC01208381
:1007300037C089819A81829751F482E390E022E365
:1007400030E0F90120812061FC01208329C08981EA
:100750009A81839751F482E390E022E330E0F9013B
:1007600020812062FC0120831BC089819A818497AB
:1007700051F482E390E022E330E0F901208120642B
:10078000FC0120830DC089819A81859749F482E319
:1007900090E022E330E0F90120812068FC01208311
:1007A0000F900F900F900F90DF91CF910895CF93FE
:1007B000DF931F92CDB7DEB789838981082E000CA5
:1007C000990B81709927892B39F061E070E080E006
:1007D00090E00E94410006C060E070E080E090E0A0
:1007E0000E9441008981082E000C990B8270992784
:1007F000892B39F061E070E081E090E00E944100D7
:1008000006C060E070E081E090E00E9441008981D4
:10081000082E000C990B84709927892B39F061E020
:1008200070E082E090E00E94410006C060E070E06D
:1008300082E090E00E9441008981082E000C990B13
:1008400088709927892B39F061E070E083E090E0AF
:100850000E94410006C060E070E083E090E00E94EA
:1008600041008981082E000C990B80719927892BF2
:1008700039F061E070E082E290E00E94410006C041
:1008800060E070E082E290E00E9441008981082EE1
:10089000000C990B80729927892B39F061E070E088
:1008A00083E290E00E94410006C060E070E083E2D5
:1008B00090E00E9441008981082E000C990B807401
:1008C0009927892B39F061E070E084E290E00E9482
:1008D000410006C060E070E084E290E00E944100C8
:1008E000898188233CF461E070E085E290E00E9419
:1008F000410006C060E070E085E290E00E944100A7
:100900000F90DF91CF910895CF93DF93CDB7DEB7EE
:100910006D970FB6F894DEBF0FBECDBF8D8F60E030
:1009200070E08AE190E00E9441008D8D0E94D70323
:1009300061E070E08BE190E00E94410080E090E097
:10094000A0E8BFE389839A83AB83BC8320E030E0D7
:100950004AE753E469817A818B819C810E949C10D3
:10096000DC01CB018D839E83AF83B88720E030E02C
:1009700040E85FE36D817E818F8198850E9416102B
:1009800088232CF481E090E09A8789873FC020E09B
:100990003FEF4FE757E46D817E818F8198850E94FC
:1009A000971018164CF520E030E040E251E46981E0
:1009B0007A818B819C810E949C10DC01CB01BC015F
:1009C000CD010E941B10DC01CB019A8789870FC0E3
:1009D00089E190E09C878B878B859C850197F1F757
:1009E0009C878B8789859A8501979A8789878985CE
:1009F0009A85892B69F714C06D817E818F819885D6
:100A00000E941B10DC01CB019A87898789859A8512
:100A10009E878D878D859E850197F1F79E878D87AF
:100A200060E070E08BE190E00E94410080E090E0A7
:100A3000A0E8BFE38F87988BA98BBA8B20E030E0CA
:100A40004AE753E46F85788989899A890E949C10C6
:100A5000DC01CB018B8B9C8BAD8BBE8B20E030E01F
:100A600040E85FE36B897C898D899E890E9416101E
:100A700088232CF481E090E0988F8F8B3FC020E09A
:100A80003FEF4FE757E46B897C898D899E890E94EF
:100A9000971018164CF520E030E040E251E46F85E5
:100AA000788989899A890E949C10DC01CB01BC015C
:100AB000CD010E941B10DC01CB01988F8F8B0FC0E2
:100AC00089E190E09A8F898F898D9A8D0197F1F74E
:100AD0009A8F898F8F89988D0197988F8F8B8F89A7
:100AE000988D892B69F714C06B897C898D899E89C3
:100AF0000E941B10DC01CB01988F8F8B8F89988D02
:100B00009C8F8B8F8B8D9C8D0197F1F79C8F8B8F9A
:100B10006D960FB6F894DEBF0FBECDBFDF91CF91BB
:100B20000895CF93DF93CDB7DEB781E00E948404B0
:100B3000DF91CF910895CF93DF9300D0CDB7DEB78B
:100B400089836A838981813029F48A8180580E944F
:100B5000840407C08981823021F48A8180540E94F4
:100B600084040F900F90DF91CF910895CF93DF937E
:100B7000CDB7DEB7E8970FB6F894DEBF0FBECDBF96
:100B800060E070E08AE190E00E94410060E070E087
:100B90008BE190E00E94410080E090E0A0EAB1E4A7
:100BA00089839A83AB83BC8320E030E04AE753E437
:100BB00069817A818B819C810E949C10DC01CB0130
:100BC0008D839E83AF83B88720E030E040E85FE309
:100BD0006D817E818F8198850E94161088232CF468
:100BE00081E090E09A8789873FC020E03FEF4FE7A0
:100BF00057E46D817E818F8198850E949710181629
:100C00004CF520E030E040E251E469817A818B814B
:100C10009C810E949C10DC01CB01BC01CD010E9493
:100C20001B10DC01CB019A8789870FC089E190E016
:100C30009C878B878B859C850197F1F79C878B8799
:100C400089859A8501979A87898789859A85892BCD
:100C500069F714C06D817E818F8198850E941B1079
:100C6000DC01CB019A87898789859A859E878D8744
:100C70008D859E850197F1F79E878D8780E30E9481
:100C8000840480E090E0A0EAB0E48F87988BA98B81
:100C9000BA8B20E030E04AE753E46F857889898990
:100CA0009A890E949C10DC01CB018B8B9C8BAD8BB5
:100CB000BE8B20E030E040E85FE36B897C898D8962
:100CC0009E890E94161088232CF481E090E0988F72
:100CD0008F8B3FC020E03FEF4FE757E46B897C8963
:100CE0008D899E890E94971018164CF520E030E0FF
:100CF00040E251E46F85788989899A890E949C1025
:100D0000DC01CB01BC01CD010E941B10DC01CB0139
:100D1000988F8F8B0FC089E190E09A8F898F898D92
:100D20009A8D0197F1F79A8F898F8F89988D019706
:100D3000988F8F8B8F89988D892B69F714C06B8959
:100D40007C898D899E890E941B10DC01CB01988FC4
:100D50008F8B8F89988D9C8F8B8F8B8D9C8D01971E
:100D6000F1F79C8F8B8F80E30E94840480E090E0F9
:100D7000A0E8BFE38D8F9E8FAF8FB8A320E030E057
:100D80004AE753E46D8D7E8D8F8D98A10E949C1053
:100D9000DC01CB0189A39AA3ABA3BCA320E030E084
:100DA00040E85FE369A17AA18BA19CA10E94161083
:100DB00088232CF481E090E09EA38DA33FC020E027
:100DC0003FEF4FE757E469A17AA18BA19CA10E9454
:100DD000971018164CF520E030E040E251E46D8D9C
:100DE0007E8D8F8D98A10E949C10DC01CB01BC01EF
:100DF000CD010E941B10DC01CB019EA38DA30FC06F
:100E000089E190E098A78FA38FA198A50197F1F7AA
:100E100098A78FA38DA19EA101979EA38DA38DA1BD
:100E20009EA1892B69F714C069A17AA18BA19CA10D
:100E30000E941B10DC01CB019EA38DA38DA19EA15E
:100E40009AA789A789A59AA50197F1F79AA789A7D3
:100E500080E30E94840480E090E0A0E2B1E48BA7EC
:100E60009CA7ADA7BEA720E030E04AE753E46BA5FE
:100E70007CA58DA59EA50E949C10DC01CB018FA7AF
:100E800098ABA9ABBAAB20E030E040E85FE36FA5D8
:100E900078A989A99AA90E94161088232CF481E0C8
:100EA00090E09CAB8BAB3FC020E03FEF4FE757E4B7
:100EB0006FA578A989A99AA90E94971018164CF5D0
:100EC00020E030E040E251E46BA57CA58DA59EA515
:100ED0000E949C10DC01CB01BC01CD010E941B10C3
:100EE000DC01CB019CAB8BAB0FC089E190E09EABEA
:100EF0008DAB8DA99EA90197F1F79EAB8DAB8BA908
:100F00009CA901979CAB8BAB8BA99CA9892B69F7FA
:100F100014C06FA578A989A99AA90E941B10DC01A9
:100F2000CB019CAB8BAB8BA99CA998AF8FAB8FA946
:100F300098AD0197F1F798AF8FAB88E30E948404D6
:100F40008CE00E94840481E00E94840486E00E9478
:100F50008404E8960FB6F894DEBF0FBECDBFDF91D4
:100F6000CF910895CF93DF93CDB7DEB76D970FB6CE
:100F7000F894DEBF0FBECDBF8D8F61E070E08AE1D7
:100F800090E00E9441008D8D0E94D70361E070E0E7
:100F90008BE190E00E94410080E090E0A0E8BFE398
:100FA00089839A83AB83BC8320E030E04AE753E433
:100FB00069817A818B819C810E949C10DC01CB012C
:100FC0008D839E83AF83B88720E030E040E85FE305
:100FD0006D817E818F8198850E94161088232CF464
:100FE00081E090E09A8789873FC020E03FEF4FE79C
:100FF00057E46D817E818F8198850E949710181625
:101000004CF520E030E040E251E469817A818B8147
:101010009C810E949C10DC01CB01BC01CD010E948F
:101020001B10DC01CB019A8789870FC089E190E012
:101030009C878B878B859C850197F1F79C878B8795
:1010400089859A8501979A87898789859A85892BC9
:1010500069F714C06D817E818F8198850E941B1075
:10106000DC01CB019A87898789859A859E878D8740
:101070008D859E850197F1F79E878D8760E070E0F2
:101080008BE190E00E94410080E090E0A0E8BFE3A7
:101090008F87988BA98BBA8B20E030E04AE753E426
:1010A0006F85788989899A890E949C10DC01CB011F
:1010B0008B8B9C8BAD8BBE8B20E030E040E85FE3F8
:1010C0006B897C898D899E890E94161088232CF457
:1010D00081E090E0988F8F8B3FC020E03FEF4FE79B
:1010E00057E46B897C898D899E890E949710181618
:1010F0004CF520E030E040E251E46F857889898941
:101100009A890E949C10DC01CB01BC01CD010E9498
:101110001B10DC01CB01988F8F8B0FC089E190E011
:101120009A8F898F898D9A8D0197F1F79A8F898F80
:101130008F89988D0197988F8F8B8F89988D892BA8
:1011400069F714C06B897C898D899E890E941B1068
:10115000DC01CB01988F8F8B8F89988D9C8F8B8F23
:101160008B8D9C8D0197F1F79C8F8B8F6D960FB6B1
:10117000F894DEBF0FBECDBFDF91CF910895CF931E
:10118000DF9300D000D0CDB7DEB79C838B831A826B
:1011900019820FC089819A812B813C81820F931F14
:1011A000FC0180810E94B20789819A8101969A830D
:1011B000898389819A812B813C81820F931FFC0155
:1011C0008081882339F70F900F900F900F90DF9157
:1011D000CF910895CF93DF93CDB7DEB78CE10E9416
:1011E0008404DF91CF910895CF93DF93CDB7DEB71D
:1011F00088E10E948404DF91CF910895CF93DF931B
:101200001F92CDB7DEB789838981082E000C990B18
:1012100081709927892B39F061E070E082E290E0DB
:101220000E94410006C060E070E082E290E00E940F
:1012300041008981082E000C990B82709927892B17
:1012400039F061E070E083E290E00E94410006C066
:1012500060E070E083E290E00E9441008981082E06
:10126000000C990B84709927892B39F061E070E0AC
:1012700084E290E00E94410006C060E070E084E2F9
:1012800090E00E9441008981082E000C990B887023
:101290009927892B39F061E070E085E290E00E94A7
:1012A000410006C060E070E085E290E00E944100ED
:1012B0000F90DF91CF910895CF93DF93CDB7DEB735
:1012C0006D970FB6F894DEBF0FBECDBF8D8F60E077
:1012D00070E08AE190E00E9441008D8D0E94FE083E
:1012E00061E070E08BE190E00E94410080E090E0DE
:1012F000A0E8BFE389839A83AB83BC8320E030E01E
:101300004AE753E469817A818B819C810E949C1019
:10131000DC01CB018D839E83AF83B88720E030E072
:1013200040E85FE36D817E818F8198850E94161071
:1013300088232CF481E090E09A8789873FC020E0E1
:101340003FEF4FE757E46D817E818F8198850E9442
:10135000971018164CF520E030E040E251E4698126
:101360007A818B819C810E949C10DC01CB01BC01A5
:10137000CD010E941B10DC01CB019A8789870FC029
:1013800089E190E09C878B878B859C850197F1F79D
:101390009C878B8789859A8501979A878987898514
:1013A0009A85892B69F714C06D817E818F8198851C
:1013B0000E941B10DC01CB019A87898789859A8559
:1013C0009E878D878D859E850197F1F79E878D87F6
:1013D00060E070E08BE190E00E94410080E090E0EE
:1013E000A0E8BFE38F87988BA98BBA8B20E030E011
:1013F0004AE753E46F85788989899A890E949C100D
:10140000DC01CB018B8B9C8BAD8BBE8B20E030E065
:1014100040E85FE36B897C898D899E890E94161064
:1014200088232CF481E090E0988F8F8B3FC020E0E0
:101430003FEF4FE757E46B897C898D899E890E9435
:10144000971018164CF520E030E040E251E46F852B
:10145000788989899A890E949C10DC01CB01BC01A2
:10146000CD010E941B10DC01CB01988F8F8B0FC028
:1014700089E190E09A8F898F898D9A8D0197F1F794
:101480009A8F898F8F89988D0197988F8F8B8F89ED
:10149000988D892B69F714C06B897C898D899E8909
:1014A0000E941B10DC01CB01988F8F8B8F89988D48
:1014B0009C8F8B8F8B8D9C8D0197F1F79C8F8B8FE1
:1014C0006D960FB6F894DEBF0FBECDBFDF91CF9102
:1014D0000895CF93DF93CDB7DEB780E00E945C091B
:1014E00081E00E945C09DF91CF910895CF93DF9353
:1014F00000D000D01F92CDB7DEB78C836D838C8176
:10150000813099F48D81805889838981859585956D
:10151000859585958A838D818F708B838A810E94C2
:101520005C098B810E945C0915C08C81823091F42A
:101530008D8180548983898185958595859585954B
:101540008A838D818F708B838A810E945C098B8155
:101550000E945C090F900F900F900F900F90DF91F9
:10156000CF910895CF93DF93CDB7DEB7AA970FB68B
:10157000F894DEBF0FBECDBF80E00E94FE0880E081
:1015800090E0A0EAB1E489839A83AB83BC8320E036
:1015900030E04AE753E469817A818B819C810E9423
:1015A0009C10DC01CB018D839E83AF83B88720E044
:1015B00030E040E85FE36D817E818F8198850E94F5
:1015C000161088232CF481E090E09A8789873FC029
:1015D00020E03FEF4FE757E46D817E818F81988552
:1015E0000E94971018164CF520E030E040E251E4DC
:1015F00069817A818B819C810E949C10DC01CB01E6
:10160000BC01CD010E941B10DC01CB019A878987A8
:101610000FC089E190E09C878B878B859C85019723
:10162000F1F79C878B8789859A8501979A878987A7
:1016300089859A85892B69F714C06D817E818F8198
:1016400098850E941B10DC01CB019A8789878985C8
:101650009A859E878D878D859E850197F1F79E8758
:101660008D8783E00E945C0980E090E0A0EAB0E40E
:101670008F87988BA98BBA8B20E030E04AE753E440
:101680006F85788989899A890E949C10DC01CB0139
:101690008B8B9C8BAD8BBE8B20E030E040E85FE312
:1016A0006B897C898D899E890E94161088232CF471
:1016B00081E090E0988F8F8B3FC020E03FEF4FE7B5
:1016C00057E46B897C898D899E890E949710181632
:1016D0004CF520E030E040E251E46F85788989895B
:1016E0009A890E949C10DC01CB01BC01CD010E94B3
:1016F0001B10DC01CB01988F8F8B0FC089E190E02C
:101700009A8F898F898D9A8D0197F1F79A8F898F9A
:101710008F89988D0197988F8F8B8F89988D892BC2
:1017200069F714C06B897C898D899E890E941B1082
:10173000DC01CB01988F8F8B8F89988D9C8F8B8F3D
:101740008B8D9C8D0197F1F79C8F8B8F83E00E948E
:101750005C0980E090E0A0E3B1E48D8F9E8FAF8FB5
:10176000B8A320E030E04AE753E46D8D7E8D8F8D85
:1017700098A10E949C10DC01CB0189A39AA3ABA382
:10178000BCA320E030E040E85FE369A17AA18BA12F
:101790009CA10E94161088232CF481E090E09EA367
:1017A0008DA33FC020E03FEF4FE757E469A17AA146
:1017B0008BA19CA10E94971018164CF520E030E0F8
:1017C00040E251E46D8D7E8D8F8D98A10E949C101A
:1017D000DC01CB01BC01CD010E941B10DC01CB015F
:1017E0009EA38DA30FC089E190E098A78FA38FA13E
:1017F00098A50197F1F798A78FA38DA19EA10197B6
:101800009EA38DA38DA19EA1892B69F714C069A108
:101810007AA18BA19CA10E941B10DC01CB019EA38D
:101820008DA38DA19EA19AA789A789A59AA50197A5
:10183000F1F79AA789A783E00E945C0982E00E94E1
:101840005C0982E00E945C0988E00E945C0980E0FB
:101850000E945C098CE00E945C0980E00E945C09A7
:1018600086E00E945C09AA960FB6F894DEBF0FBE10
:10187000CDBFDF91CF910895CF93DF93CDB7DEB782
:10188000EB970FB6F894DEBF0FBECDBF8BAF8BAD1D
:101890008F7089838BAD807F8A8361E070E08AE1FD
:1018A00090E00E9441008A81859585958595859572
:1018B0000E94FE0861E070E08BE190E00E94410030
:1018C00080E090E0A0E8BFE38B839C83AD83BE8380
:1018D00020E030E04AE753E46B817C818D819E817A
:1018E0000E949C10DC01CB018F839887A987BA875F
:1018F00020E030E040E85FE36F81788589859A8554
:101900000E94161088232CF481E090E09C878B873E
:101910003FC020E03FEF4FE757E46F81788589852E
:101920009A850E94971018164CF520E030E040E2AE
:1019300051E46B817C818D819E810E949C10DC0131
:10194000CB01BC01CD010E941B10DC01CB019C87A7
:101950008B870FC089E190E09E878D878D859E855E
:101960000197F1F79E878D878B859C8501979C87D2
:101970008B878B859C85892B69F714C06F8178854F
:1019800089859A850E941B10DC01CB019C878B877F
:101990008B859C85988B8F878F8598890197F1F728
:1019A000988B8F8760E070E08BE190E00E944100AF
:1019B00080E090E0A0E8BFE3898B9A8BAB8BBC8B77
:1019C00020E030E04AE753E469897A898B899C8971
:1019D0000E949C10DC01CB018D8B9E8BAF8BB88F4E
:1019E00020E030E040E85FE36D897E898F89988D43
:1019F0000E94161088232CF481E090E09A8F898F42
:101A00003FC020E03FEF4FE757E46D897E898F8923
:101A1000988D0E94971018164CF520E030E040E2B7
:101A200051E469897A898B899C890E949C10DC0128
:101A3000CB01BC01CD010E941B10DC01CB019A8FB0
:101A4000898F0FC089E190E09C8F8B8F8B8D9C8D4F
:101A50000197F1F79C8F8B8F898D9A8D01979A8FC3
:101A6000898F898D9A8D892B69F714C06D897E893C
:101A70008F89988D0E941B10DC01CB019A8F898F72
:101A8000898D9A8D9E8F8D8F8D8D9E8D0197F1F70B
:101A90009E8F8D8F89810E94FE0861E070E08BE14E
:101AA00090E00E94410080E090E0A0E8BFE38F8FCB
:101AB00098A3A9A3BAA320E030E04AE753E46F8DCE
:101AC00078A189A19AA10E949C10DC01CB018BA373
:101AD0009CA3ADA3BEA320E030E040E85FE36BA190
:101AE0007CA18DA19EA10E94161088232CF481E078
:101AF00090E098A78FA33FC020E03FEF4FE757E467
:101B00006BA17CA18DA19EA10E94971018164CF587
:101B100020E030E040E251E46F8D78A189A19AA1E4
:101B20000E949C10DC01CB01BC01CD010E941B1066
:101B3000DC01CB0198A78FA30FC089E190E09AA7A1
:101B400089A789A59AA50197F1F79AA789A78FA1D7
:101B500098A5019798A78FA38FA198A5892B69F7BE
:101B600014C06BA17CA18DA19EA10E941B10DC0161
:101B7000CB0198A78FA38FA198A59CA78BA78BA516
:101B80009CA50197F1F79CA78BA760E070E08BE123
:101B900090E00E94410080E090E0A0E8BFE38DA7C4
:101BA0009EA7AFA7B8AB20E030E04AE753E46DA5AD
:101BB0007EA58FA598A90E949C10DC01CB0189AB62
:101BC0009AABABABBCAB20E030E040E85FE369A987
:101BD0007AA98BA99CA90E94161088232CF481E075
:101BE00090E09EAB8DAB3FC020E03FEF4FE757E466
:101BF00069A97AA98BA99CA90E94971018164CF57F
:101C000020E030E040E251E46DA57EA58FA598A9C3
:101C10000E949C10DC01CB01BC01CD010E941B1075
:101C2000DC01CB019EAB8DAB0FC089E190E098AF9A
:101C30008FAB8FA998AD0197F1F798AF8FAB8DA9B6
:101C40009EA901979EAB8DAB8DA99EA9892B69F7A3
:101C500014C069A97AA98BA99CA90E941B10DC0158
:101C6000CB019EAB8DAB8DA99EA99AAF89AF89ADF3
:101C70009AAD0197F1F79AAF89AFEB960FB6F8944A
:101C8000DEBF0FBECDBFDF91CF910895CF93DF931D
:101C900000D000D0CDB7DEB79C838B831A82198227
:101CA0000FC089819A812B813C81820F931FFC0197
:101CB00080810E943C0C89819A8101969A83898354
:101CC00089819A812B813C81820F931FFC01808145
:101CD000882339F70F900F900F900F90DF91CF91DD
:101CE0000895CF93DF93CDB7DEB781E00E945C0902
:101CF0008CE00E945C09DF91CF910895CF93DF9330
:101D0000CDB7DEB781E00E945C0988E00E945C09E3
:101D1000DF91CF910895CF93DF93CDB7DEB786E201
:101D200090E024EEFC01208380E590E0FC0110822D
:101D3000DF91CF910895CF93DF93CDB7DEB7629750
:101D40000FB6F894DEBF0FBECDBF8A8B87E290E05E
:101D50002A892064FC01208380E090E0A0E8BFE3B2
:101D60008C839D83AE83BF8320E030E04AE753E459
:101D70006C817D818E819F810E949C10DC01CB0152
:101D800088879987AA87BB8720E030E040E85FE337
:101D9000688579858A859B850E94161088232CF496
:101DA00081E090E09D878C873FC020E03FEF4FE7C8
:101DB00057E4688579858A859B850E949710181657
:101DC0004CF520E030E040E251E46C817D818E8171
:101DD0009F810E949C10DC01CB01BC01CD010E94BF
:101DE0001B10DC01CB019D878C870FC089E190E03F
:101DF0009F878E878E859F850197F1F79F878E87B6
:101E00008C859D8501979D878C878C859D85892BE9
:101E100069F714C0688579858A859B850E941B10A7
:101E2000DC01CB019D878C878C859D85998B888B68
:101E3000888999890197F1F7998B888B84E290E0E2
:101E4000FC018081898385E290E0FC018081882FFC
:101E500090E09B838A838A819B81382F2227898106
:101E6000882F90E0822B932B9B838A838A819B818E
:101E700062960FB6F894DEBF0FBECDBFDF91CF9153
:101E80000895CF93DF93CDB7DEB76B970FB6F89475
:101E9000DEBF0FBECDBF19821A821B821C820E9438
:101EA000B20A0E94690A88E390E02FEFFC012083C8
:101EB00060E081E00E94760A80E690E00E94460E93
:101EC00080E090E4ACE9B5E48F839887A987BA876E
:101ED00020E030E04AE753E46F81788589859A8570
:101EE0000E949C10DC01CB018B879C87AD87BE874D
:101EF00020E030E040E85FE36B857C858D859E8542
:101F00000E94161088232CF481E090E0988B8F8734
:101F10003FC020E03FEF4FE757E46B857C858D8520
:101F20009E850E94971018164CF520E030E040E2A4
:101F300051E46F81788589859A850E949C10DC0127
:101F4000CB01BC01CD010E941B10DC01CB01988BA1
:101F50008F870FC089E190E09A8B898B89899A8954
:101F60000197F1F79A8B898B8F8598890197988BC8
:101F70008F878F859889892B69F714C06B857C853D
:101F80008D859E850E941B10DC01CB01988B8F876D
:101F90008F8598899C8B8B8B8B899C890197F1F716
:101FA0009C8B8B8B88E390E0FC0110820E94690A75
:101FB00081E390E02FEFFC01208384E390E02FEF9A
:101FC000FC01208387E390E02FEFFC0120830E9437
:101FD0008B0E80E00E949B0E9E838D838E818F935B
:101FE0008D818F9386E690E0892F8F9386E690E02F
:101FF0008F931F9287E08F93CE014596292F2F93C1
:102000008F930E9431118DB79EB708960FB6F89442
:10201000DEBF0FBECDBF0E94690A60E081E00E9472
:10202000760ACE0145960E94460ED3CF0E944A10F2
:1020300008F481E008950E94761088F09F5798F088
:10204000B92F9927B751B0F0E1F0660F771F881FBD
:10205000991F1AF0BA95C9F714C0B13091F00E94D7
:102060009010B1E008950C949010672F782F882776
:10207000B85F39F0B93FCCF3869577956795B395FE
:10208000D9F73EF490958095709561957F4F8F4F6D
:102090009F4F0895990F0008550FAA0BE0E8FEEF37
:1020A00016161706E807F907C0F012161306E4071C
:1020B000F50798F0621B730B840B950B39F40A2615
:1020C00061F0232B242B252B21F408950A2609F4F3
:1020D000A140A6958FEF811D811D089557FD905851
:1020E000440F551F59F05F3F71F04795880F97FBDC
:1020F000991F61F09F3F79F0879508951216130696
:102100001406551FF2CF4695F1DF08C016161706C4
:102110001806991FF1CF86957105610508940895F9
:10212000E894BB2766277727CB0197F908950E948B
:102130004A1008F48FEF08950E94AF100C942011FC
:102140000E94121138F00E94191120F0952311F00D
:102150000C9409110C940F1111240C9491100E94ED
:102160006E1070F3959FC1F3950F50E0551F629F5D
:10217000F001729FBB27F00DB11D639FAA27F00DE0
:10218000B11DAA1F649F6627B00DA11D661F829F07
:102190002227B00DA11D621F739FB00DA11D621FEC
:1021A000839FA00D611D221F749F3327A00D611D09
:1021B000231F849F600D211D822F762F6A2F1124EB
:1021C0009F5750409AF0F1F088234AF0EE0FFF1F1E
:1021D000BB1F661F771F881F91505040A9F79E3F75
:1021E000510580F00C9409110C9491105F3FE4F3B9
:1021F000983ED4F3869577956795B795F795E795CB
:102200009F5FC1F7FE2B880F911D9695879597F9D3
:10221000089597F99F6780E870E060E008959FEF68
:1022200080EC089500240A9416161706180609066D
:10223000089500240A94121613061406050608953C
:10224000092E0394000C11F4882352F0BB0F40F4C4
:10225000BF2B11F460FF04C06F5F7F4F8F4F9F4F04
:102260000895AEE0B0E0E7E3F1E10C94ED130D89E1
:102270001E898F89988D26E02C831A83098397FF06
:1022800002C080E090E801979E838D83AE01455E99
:102290005F4F698D7A8DCE0101960E9461114D814B
:1022A0005E8157FD0AC02F813885421753070CF411
:1022B0009A01F801E20FF31F10822E96E4E00C94CD
:1022C0000914ACE0B0E0E7E6F1E10C94DF137C0127
:1022D0006B018A01FC0117821682838181FFBDC1D7
:1022E000CE0101964C01F7019381F60193FD859192
:1022F00093FF81916F01882309F4ABC1853239F4D2
:1023000093FD859193FF81916F01853229F4B70187
:1023100090E00E944913E7CF512C312C20E020326D
:10232000A0F48B3269F030F4803259F0833269F4D2
:1023300020612CC08D3239F0803339F4216026C001
:102340002260246023C0286021C027FD27C030ED13
:10235000380F3A3078F426FF06C0FAE05F9E300D61
:102360001124532E13C08AE0389E300D1124332ED1
:1023700020620CC08E3221F426FD6BC1206406C0A1
:102380008C3611F4206802C0883641F4F60193FDC2
:10239000859193FF81916F018111C1CF982F9F7D0E
:1023A0009554933028F40C5F1F4FFFE3F9830DC061
:1023B000833631F0833771F0833509F05BC022C07A
:1023C000F801808189830E5F1F4F44244394512C70
:1023D000540115C03801F2E06F0E711CF801A080A5
:1023E000B18026FF03C0652D70E002C06FEF7FEF64
:1023F000C5012C870E943E132C0183012C852F7769
:10240000222E17C03801F2E06F0E711CF801A08077
:10241000B18026FF03C0652D70E002C06FEF7FEF33
:10242000C5012C870E9433132C012C852068222E95
:10243000830123FC1BC0832D90E048165906B0F49D
:10244000B70180E290E00E9449133A94F4CFF5017D
:1024500027FC859127FE81915F01B70190E00E94E2
:10246000491331103A94F1E04F1A510841145104C4
:1024700071F7E5C0843611F0893639F5F80127FF88
:1024800007C060817181828193810C5F1F4F08C0FA
:1024900060817181072E000C880B990B0E5F1F4F16
:1024A0002F76722E97FF09C0909580957095619553
:1024B0007F4F8F4F9F4F2068722E2AE030E0A4019B
:1024C0000E948113A82EA81844C0853729F42F7EB6
:1024D000B22E2AE030E025C0F22FF97FBF2E8F36D2
:1024E000C1F018F4883579F0B4C0803719F0883716
:1024F00021F0AFC02F2F2061B22EB4FE0DC08B2D66
:102500008460B82E09C024FF0AC09F2F9660B92EA0
:1025100006C028E030E005C020E130E002C020E144
:1025200032E0F801B7FE07C060817181828193813A
:102530000C5F1F4F06C06081718180E090E00E5FEC
:102540001F4FA4010E948113A82EA818FB2DFF770E
:102550007F2E76FE0BC0372D3E7FA51450F474FEFF
:102560000AC072FC08C0372D3E7E05C0BA2C372D3C
:1025700003C0BA2C01C0B52C34FF0DC0FE01EA0D1A
:10258000F11D8081803311F4397E09C032FF06C00D
:10259000B394B39404C0832F867809F0B39433FDC9
:1025A00013C030FF06C05A2CB31418F4530C5B1838
:1025B000B32CB31468F4B70180E290E03C870E942A
:1025C0004913B3943C85F5CFB31410F43B1801C004
:1025D000312C34FF12C0B70180E390E03C870E94A9
:1025E00049133C8532FF17C031FD03C088E790E0F6
:1025F00002C088E590E0B7010CC0832F867859F0BF
:1026000031FF02C08BE201C080E237FD8DE2B701ED
:1026100090E00E944913A51438F4B70180E390E0DC
:102620000E9449135A94F7CFAA94F401EA0DF11DC0
:102630008081B70190E00E944913A110F5CF3320AB
:1026400009F451CEB70180E290E00E9449133A9418
:10265000F6CFF7018681978102C08FEF9FEF2C960E
:10266000E2E10C94FB13FC010590615070400110F5
:10267000D8F7809590958E0F9F1F0895FC016150AB
:10268000704001900110D8F7809590958E0F9F1F94
:1026900008950F931F93CF93DF93FB01238121FDB7
:1026A00003C08FEF9FEF28C022FF16C046815781DD
:1026B000248135814217530744F4A081B1819D01E3
:1026C0002F5F3F4F318320838C93268137812F5F8B
:1026D0003F4F3783268310C0EB01092F182F00844A
:1026E000F185E02D0995892BE1F68E819F81019678
:1026F0009F838E83812F902FDF91CF911F910F9118
:102700000895FA01AA27283051F1203181F1E89487
:102710006F936E7F6E5F7F4F8F4F9F4FAF4FB1E0D4
:102720003ED0B4E03CD0670F781F891F9A1FA11DCF
:10273000680F791F8A1F911DA11D6A0F711D811DD0
:10274000911DA11D20D009F468943F912AE0269F95
:1027500011243019305D3193DEF6CF010895462FF4
:102760004770405D4193B3E00FD0C9F7F6CF462FD5
:102770004F70405D4A3318F0495D31FD405241933E
:1027800002D0A9F7EACFB4E0A695979587957795FB
:102790006795BA95C9F700976105710508959B0182
:1027A000AC010A2E06945795479537952795BA950B
:1027B000C9F7620F731F841F951FA01D08952F92E4
:1027C0003F924F925F926F927F928F929F92AF92C1
:1027D000BF92CF92DF92EF92FF920F931F93CF930E
:1027E000DF93CDB7DEB7CA1BDB0B0FB6F894DEBFA5
:1027F0000FBECDBF09942A88398848885F846E84CB
:102800007D848C849B84AA84B984C884DF80EE8014
:10281000FD800C811B81AA81B981CE0FD11D0FB61D
:10282000F894DEBF0FBECDBFED010895F894FFCF41
:0A2830005374617274002564000007
:00000001FF
