:100000000C942A000C9434000C9434000C943400AA
:100010000C9434000C9434000C9434000C94340090
:100020000C9434000C9434000C9434000C94340080
:100030000C9434000C9434000C9434000C94340070
:100040000C9434000C9434000C9434000C94340060
:100050000C94340011241FBECFE5D8E0DEBFCDBF25
:100060000E9436000C94E4010C940000CF93DF93BF
:10007000CDB7DEB72F970FB6F894DEBF0FBECDBF5A
:1000800081E390E02FEFFC01208382E390E0FC010C
:100090001082198282E390E02981FC01208380E0B4
:1000A00090E0A8ECB2E48A839B83AC83BD8320E01C
:1000B00030E04AE753E46A817B818C819D810E9414
:1000C0004F01DC01CB018E839F83A887B98720E095
:1000D00030E040E85FE36E817F81888599850E94EA
:1000E000C90088232CF481E090E09B878A873FC079
:1000F00020E03FEF4FE757E46E817F818885998547
:100100000E944A0118164CF520E030E040E251E42C
:100110006A817B818C819D810E944F01DC01CB0132
:10012000BC01CD010E94CE00DC01CB019B878A87F8
:100130000FC089E190E09D878C878C859D85019714
:10014000F1F79D878C878A859B8501979B878A8796
:100150008A859B85892B69F714C06E817F8188858C
:1001600099850E94CE00DC01CB019B878A878A8516
:100170009B859F878E878E859F850197F1F79F8747
:100180008E878981882319F48FEF898301C01982B2
:1001900081CF0E94FD0008F481E008950E942901AA
:1001A00088F09F5798F0B92F9927B751B0F0E1F038
:1001B000660F771F881F991F1AF0BA95C9F714C0E8
:1001C000B13091F00E944301B1E008950C944301D5
:1001D000672F782F8827B85F39F0B93FCCF3869521
:1001E00077956795B395D9F73EF49095809570957E
:1001F00061957F4F8F4F9F4F0895990F0008550FBE
:10020000AA0BE0E8FEEF16161706E807F907C0F09C
:1002100012161306E407F50798F0621B730B840BA4
:10022000950B39F40A2661F0232B242B252B21F47E
:1002300008950A2609F4A140A6958FEF811D811D1E
:10024000089557FD9058440F551F59F05F3F71F0C6
:100250004795880F97FB991F61F09F3F79F087952D
:100260000895121613061406551FF2CF4695F1DFB6
:1002700008C0161617061806991FF1CF8695710546
:10028000610508940895E894BB2766277727CB017A
:1002900097F908950E94FD0008F48FEF08950E94D9
:1002A00062010C94D3010E94C50138F00E94CC0178
:1002B00020F0952311F00C94BC010C94C201112480
:1002C0000C9444010E94210170F3959FC1F3950F96
:1002D00050E0551F629FF001729FBB27F00DB11DCA
:1002E000639FAA27F00DB11DAA1F649F6627B00D5A
:1002F000A11D661F829F2227B00DA11D621F739F43
:10030000B00DA11D621F839FA00D611D221F749F50
:100310003327A00D611D231F849F600D211D822F97
:10032000762F6A2F11249F5750409AF0F1F08823BE
:100330004AF0EE0FFF1FBB1F661F771F881F9150EB
:100340005040A9F79E3F510580F00C94BC010C94DD
:1003500044015F3FE4F3983ED4F386957795679523
:10036000B795F795E7959F5FC1F7FE2B880F911D15
:100370009695879597F9089597F99F6780E870E0BB
:1003800060E008959FEF80EC089500240A9416160B
:10039000170618060906089500240A941216130673
:1003A000140605060895092E0394000C11F4882301
:1003B00052F0BB0F40F4BF2B11F460FF04C06F5F1D
:0C03C0007F4F8F4F9F4F0895F894FFCFA0
:00000001FF
