:100000000C942A000C943E000C9407010C943C00C4
:100010000C943C000C943C000C943C000C943C0070
:100020000C943C000C943C000C943C000C943C0060
:100030000C943C000C943C000C943C000C943C0050
:100040000C943C000C943C000C943C000C943C0040
:100050000C943C0011241FBECFE5D8E0DEBFCDBF1D
:1000600020E0A0E6B0E001C01D92A236B207E1F7A1
:100070000E94D0010C941B030C9400001F920F925D
:1000800000905F000F9211242F933F934F935F9343
:100090006F937F938F939F93AF93BF93EF93FF9350
:1000A000CF93DF93CDB7DEB72E97DEBFCDBF8AE506
:1000B00090E02AE530E0F9012081FC012083809165
:1000C000600090916100892B39F481E090E0909379
:1000D0006100809360000FC080916000909161008A
:1000E000019749F488E390E020E8FC012083109216
:1000F00061001092600080E090E0A8E4B2E489839F
:100100009A83AB83BC8320E030E04AE753E4698103
:100110007A818B819C810E948602DC01CB018D83D8
:100120009E83AF83B88720E030E040E85FE36D81D5
:100130007E818F8198850E94000288232CF481E0C3
:1001400090E09A8789873FC020E03FEF4FE757E470
:100150006D817E818F8198850E94810218164CF5F1
:1001600020E030E040E251E469817A818B819C811A
:100170000E948602DC01CB01BC01CD010E94050278
:10018000DC01CB019A8789870FC089E190E09C87C9
:100190008B878B859C850197F1F79C878B87898559
:1001A0009A8501979A87898789859A85892B69F726
:1001B00014C06D817E818F8198850E940502DC01CB
:1001C000CB019A87898789859A859E878D878D85BA
:1001D0009E850197F1F79E878D872E960FB6F8942E
:1001E000DEBF0FBECDBFDF91CF91FF91EF91BF91E9
:1001F000AF919F918F917F916F915F914F913F91BF
:100200002F910F9000925F000F901F9018951F92F2
:100210000F9200905F000F9211242F933F934F9302
:100220005F936F937F938F939F93AF93BF93EF935E
:10023000FF93CF93DF93CDB7DEB72E97DEBFCDBF51
:100240008AE590E02AE530E0F9012081FC01208375
:100250008091600090916100892B39F481E090E0F9
:1002600090936100809360000FC080916000909136
:100270006100019749F488E390E020E4FC012083C9
:10028000109261001092600080E090E0A8E4B2E477
:1002900089839A83AB83BC8320E030E04AE753E450
:1002A00069817A818B819C810E948602DC01CB016D
:1002B0008D839E83AF83B88720E030E040E85FE322
:1002C0006D817E818F8198850E94000288232CF4A5
:1002D00081E090E09A8789873FC020E03FEF4FE7B9
:1002E00057E46D817E818F8198850E948102181666
:1002F0004CF520E030E040E251E469817A818B8165
:100300009C810E948602DC01CB01BC01CD010E94D0
:100310000502DC01CB019A8789870FC089E190E053
:100320009C878B878B859C850197F1F79C878B87B2
:1003300089859A8501979A87898789859A85892BE6
:1003400069F714C06D817E818F8198850E940502B6
:10035000DC01CB019A87898789859A859E878D875D
:100360008D859E850197F1F79E878D872E960FB616
:10037000F894DEBF0FBECDBFDF91CF91FF91EF911B
:10038000BF91AF919F918F917F916F915F914F91AD
:100390003F912F910F9000925F000F901F90189542
:1003A000CF93DF93CDB7DEB710926100109260005B
:1003B00087E390E02FEFFC01208388E390E020E4C6
:1003C000FC0120838BE390E02BEAFC0120838BE58A
:1003D00090E020ECFC01208385E590E025E530E00D
:1003E000F90120812A60FC01208385E590E025E564
:1003F00030E0F90120812A7FFC0120837894FFCF2F
:100400000E94340208F481E008950E94600288F09E
:100410009F5798F0B92F9927B751B0F0E1F0660FC8
:10042000771F881F991F1AF0BA95C9F714C0B13009
:1004300091F00E947A02B1E008950C947A02672F3D
:10044000782F8827B85F39F0B93FCCF38695779538
:100450006795B395D9F73EF4909580957095619521
:100460007F4F8F4F9F4F0895990F0008550FAA0B8C
:10047000E0E8FEEF16161706E807F907C0F01216B7
:100480001306E407F50798F0621B730B840B950BBA
:1004900039F40A2661F0232B242B252B21F408950F
:1004A0000A2609F4A140A6958FEF811D811D0895AC
:1004B00057FD9058440F551F59F05F3F71F0479515
:1004C000880F97FB991F61F09F3F79F087950895FA
:1004D000121613061406551FF2CF4695F1DF08C019
:1004E000161617061806991FF1CF86957105610536
:1004F00008940895E894BB2766277727CB0197F9DE
:1005000008950E94340208F48FEF08950E94990222
:100510000C940A030E94FC0238F00E94030320F0AE
:10052000952311F00C94F3020C94F90211240C940D
:100530007B020E94580270F3959FC1F3950F50E023
:10054000551F629FF001729FBB27F00DB11D639F85
:10055000AA27F00DB11DAA1F649F6627B00DA11D2B
:10056000661F829F2227B00DA11D621F739FB00DD1
:10057000A11D621F839FA00D611D221F749F332741
:10058000A00D611D231F849F600D211D822F762FDA
:100590006A2F11249F5750409AF0F1F088234AF0B7
:1005A000EE0FFF1FBB1F661F771F881F9150504023
:1005B000A9F79E3F510580F00C94F3020C947B0246
:1005C0005F3FE4F3983ED4F3869577956795B795AA
:1005D000F795E7959F5FC1F7FE2B880F911D9695C4
:1005E000879597F9089597F99F6780E870E060E034
:1005F00008959FEF80EC089500240A9416161706BC
:1006000018060906089500240A9412161306140603
:1006100005060895092E0394000C11F4882352F066
:10062000BB0F40F4BF2B11F460FF04C06F5F7F4F1E
:0A0630008F4F9F4F0895F894FFCFFD
:00000001FF
