:100000000C942A000C943F000C943F000C943F0089
:100010000C943F000C943F000C943F000C943F0064
:100020000C943F000C943F000C943F000C943F0054
:100030000C943F000C943F000C943F000C943F0044
:100040000C943F000C943F000C943F000C943F0034
:100050000C943F0011241FBECFE5D4E0DEBFCDBF1E
:1000600010E0A0E6B0E0E6E1F6E002C005900D92F7
:10007000A836B107D9F70E9441000C9409030C94EB
:100080000000CF93DF93CDB7DEB78AE390E02FEF88
:10009000FC01208387E390E02FEFFC01208380E6C2
:1000A00090E00E94DE00FBCFCF93DF93CDB7DEB7A9
:1000B0002E970FB6F894DEBF0FBECDBF87E390E05A
:1000C0002FEFFC01208380E090E0A8ECB3E489836B
:1000D0009A83AB83BC8320E030E04AE753E4698134
:1000E0007A818B819C810E947402DC01CB018D831B
:1000F0009E83AF83B88720E030E040E85FE36D8106
:100100007E818F8198850E94EE0188232CF481E006
:1001100090E09A8789873FC020E03FEF4FE757E4A0
:100120006D817E818F8198850E946F0218164CF533
:1001300020E030E040E251E469817A818B819C814A
:100140000E947402DC01CB01BC01CD010E94F301CD
:10015000DC01CB019A8789870FC089E190E09C87F9
:100160008B878B859C850197F1F79C878B87898589
:100170009A8501979A87898789859A85892B69F756
:1001800014C06D817E818F8198850E94F301DC010E
:10019000CB019A87898789859A859E878D878D85EA
:1001A0009E850197F1F79E878D872E960FB6F8945E
:1001B000DEBF0FBECDBFDF91CF910895CF93DF9308
:1001C000CDB7DEB765970FB6F894DEBF0FBECDBFD3
:1001D0009D8B8C8B88E390E02FEFFC0120831A82AB
:1001E00019829FC081E08D831C821B8290C08BE3AB
:1001F00090E02D81FC0120838D81880F8D838D817E
:10020000882311F481E08D8388E390E02B813C8189
:100210004C895D89240F351FF9012081FC01208361
:1002200080E090E0A0E0B0E48E839F83A887B98748
:1002300020E030E04AE753E46E817F81888599852C
:100240000E947402DC01CB018A879B87AC87BD8743
:1002500020E030E040E85FE36A857B858C859D8502
:100260000E94EE0188232CF481E090E09F878E8726
:100270003FC020E03FEF4FE757E46A857B858C85E0
:100280009D850E946F0218164CF520E030E040E298
:1002900051E46E817F81888599850E947402DC011A
:1002A000CB01BC01CD010E94F301DC01CB019F8792
:1002B0008E870FC089E190E0998B888B8889998916
:1002C0000197F1F7998B888B8E859F8501979F8782
:1002D0008E878E859F85892B69F714C06A857B85FB
:1002E0008C859D850E94F301DC01CB019F878E8761
:1002F0008E859F859B8B8A8B8A899B890197F1F7D5
:100300009B8B8A8B8B819C8101969C838B838B81B9
:100310009C8108970CF46BCF89819A8101969A830E
:10032000898389819A8149970CF45CCF65960FB6D1
:10033000F894DEBF0FBECDBFDF91CF910895CF936C
:10034000DF9300D000D01F92CDB7DEB79D838C83A2
:100350001A82198237C089819A812C813D81820F4E
:10036000931FFC01808180788B838B81881F882775
:10037000881F8B8389819A812C813D81820F931FF5
:1003800029813A814C815D81240F351FF90120813B
:10039000220FFC01208389819A812C813D81820F6B
:1003A000931F29813A814C815D81240F351FF9010A
:1003B00030812B81232BFC01208389819A81019636
:1003C0009A83898389819A8108972CF20F900F90E4
:1003D0000F900F900F90DF91CF9108950E9422020D
:1003E00008F481E008950E944E0288F09F5798F02B
:1003F000B92F9927B751B0F0E1F0660F771F881F2A
:10040000991F1AF0BA95C9F714C0B13091F00E9443
:100410006802B1E008950C946802672F782F88274E
:10042000B85F39F0B93FCCF3869577956795B3956A
:10043000D9F73EF490958095709561957F4F8F4FD9
:100440009F4F0895990F0008550FAA0BE0E8FEEFA3
:1004500016161706E807F907C0F012161306E40788
:10046000F50798F0621B730B840B950B39F40A2681
:1004700061F0232B242B252B21F408950A2609F45F
:10048000A140A6958FEF811D811D089557FD9058BD
:10049000440F551F59F05F3F71F04795880F97FB48
:1004A000991F61F09F3F79F0879508951216130602
:1004B0001406551FF2CF4695F1DF08C01616170631
:1004C0001806991FF1CF8695710561050894089566
:1004D000E894BB2766277727CB0197F908950E94F8
:1004E000220208F48FEF08950E9487020C94F8020C
:1004F0000E94EA0238F00E94F10220F0952311F0E8
:100500000C94E1020C94E70211240C9469020E94FD
:10051000460270F3959FC1F3950F50E0551F629FFF
:10052000F001729FBB27F00DB11D639FAA27F00D4C
:10053000B11DAA1F649F6627B00DA11D661F829F73
:100540002227B00DA11D621F739FB00DA11D621F58
:10055000839FA00D611D221F749F3327A00D611D75
:10056000231F849F600D211D822F762F6A2F112457
:100570009F5750409AF0F1F088234AF0EE0FFF1F8A
:10058000BB1F661F771F881F91505040A9F79E3FE1
:10059000510580F00C94E1020C9469025F3FE4F392
:1005A000983ED4F3869577956795B795F795E79537
:1005B0009F5FC1F7FE2B880F911D9695879597F940
:1005C000089597F99F6780E870E060E008959FEFD5
:1005D00080EC089500240A941616170618060906DA
:1005E000089500240A9412161306140605060895A9
:1005F000092E0394000C11F4882352F0BB0F40F431
:10060000BF2B11F460FF04C06F5F7F4F8F4F9F4F70
:060610000895F894FFCFED
:080616007FFFFFFDFFFDBFFFA8
:00000001FF
