:100000000C942A000C9449000C941A010C9447009B
:100010000C9447000C9447000C9447000C94470044
:100020000C9447000C9447000C9447000C94470034
:100030000C9447000C9447000C9447000C94470024
:100040000C9447000C9447000C9447000C94470014
:100050000C94470011241FBECFE5D8E0DEBFCDBF12
:1000600012E0A0E6B0E0E4EBFAE302C005900D92E6
:10007000AC38B107D9F723E0ACE8B2E001C01D927B
:10008000AA36B207E1F70E9406170C94581D0C948B
:1000900000001F920F9200905F000F9211242F9387
:1000A0003F934F935F936F937F938F939F93AF9300
:1000B000BF93EF93FF93CF93DF93CDB7DEB72E9728
:1000C000DEBFCDBF8091680390916903019719F459
:1000D0000E940F0D1AC080916803909169030297E6
:1000E00019F40E940D1111C0809168039091690369
:1000F000039719F40E940F0908C08091680390913A
:100100006903049711F40E940E0580E090E0A8E4D2
:10011000B3E489839A83AB83BC8320E030E04AE771
:1001200053E469817A818B819C810E94C31CDC012C
:10013000CB018D839E83AF83B88720E030E040E819
:100140005FE36D817E818F8198850E943D1C8823AD
:100150002CF481E090E09A8789873FC020E03FEF50
:100160004FE757E46D817E818F8198850E94BE1C88
:1001700018164CF520E030E040E251E469817A81C4
:100180008B819C810E94C31CDC01CB01BC01CD0191
:100190000E94421CDC01CB019A8789870FC089E14C
:1001A00090E09C878B878B859C850197F1F79C87D6
:1001B0008B8789859A8501979A87898789859A850A
:1001C000892B69F714C06D817E818F8198850E948B
:1001D000421CDC01CB019A87898789859A859E8795
:1001E0008D878D859E850197F1F79E878D878AE59E
:1001F00090E0FC0180818AE590E02FEFFC012083F4
:100200002E960FB6F894DEBF0FBECDBFDF91CF9113
:10021000FF91EF91BF91AF919F918F917F916F91DE
:100220005F914F913F912F910F9000925F000F903F
:100230001F9018951F920F9200905F000F9211244B
:100240002F933F934F935F936F937F938F939F93DE
:10025000AF93BF93EF93FF93CF93DF93CDB7DEB709
:100260002E97DEBFCDBF80916803909169030197FF
:1002700019F40E940D111AC08091680390916903CE
:10028000029719F40E940F0D11C08091680390919C
:100290006903039719F40E940E0508C08091680352
:1002A00090916903049711F40E940F0980E090E097
:1002B000A8E4B3E489839A83AB83BC8320E030E075
:1002C0004AE753E469817A818B819C810E94C31C37
:1002D000DC01CB018D839E83AF83B88720E030E0C3
:1002E00040E85FE36D817E818F8198850E943D1C8F
:1002F00088232CF481E090E09A8789873FC020E032
:100300003FEF4FE757E46D817E818F8198850E9492
:10031000BE1C18164CF520E030E040E251E4698143
:100320007A818B819C810E94C31CDC01CB01BC01C2
:10033000CD010E94421CDC01CB019A8789870FC046
:1003400089E190E09C878B878B859C850197F1F7ED
:100350009C878B8789859A8501979A878987898564
:100360009A85892B69F714C06D817E818F8198856C
:100370000E94421CDC01CB019A87898789859A8576
:100380009E878D878D859E850197F1F79E878D8746
:100390008AE590E0FC0180818AE590E02FEFFC0186
:1003A00020832E960FB6F894DEBF0FBECDBFDF912F
:1003B000CF91FF91EF91BF91AF919F918F917F91DD
:1003C0006F915F914F913F912F910F9000925F003D
:1003D0000F901F901895CF93DF9300D000D0CDB72A
:1003E000DEB71A82198223C01C821B8217C0898142
:1003F0009A819C01220F331F220F331F220F331FBC
:100400008B819C81820F931F8E549D4F2EE2FC01A5
:1004100020838B819C8101969C838B838B819C8123
:1004200008972CF389819A8101969A83898389811F
:100430009A814097CCF28AE280930E0380910E035A
:1004400080930D0380910D0380930C038AE28093C7
:10045000050381E090E090936903809368038AE04C
:1004600090E090933F0380933E0383E090E090936D
:100470004B0380934A038AE28093B9028091B902C8
:100480008093B8028091B8028093B7028091B7023E
:100490008093B4028091B4028093B3028091B3023E
:1004A0008093B2028AE2809331038091310380937A
:1004B00030038091300380932F0380912F0380932A
:1004C0002C0380912C0380932B0380912B0380932A
:1004D0002A038AE28093C0028091C0028093BB020B
:1004E0008AE280932803809128038093230381E08C
:1004F00090E09093A3028093A20281E090E0909319
:10050000A5028093A4028EE090E09093A7028093CE
:10051000A6028EE090E09093A9028093A80281E069
:1005200090E0909359038093580386E090E0909375
:100530005B0380935A0381E090E090935D03809386
:100540005C0386E090E090935F0380935E0382E01B
:1005500090E0909337038093360382E090E090938D
:1005600039038093380381E090E090933B038093BC
:100570003A0381E090E090933D0380933C030F9019
:100580000F900F900F90DF91CF910895CF93DF934D
:1005900000D000D0CDB7DEB79A8389837C836B838C
:1005A00089819A81181619066CF489819A810F97AE
:1005B0004CF48B819C811816190624F48B819C8144
:1005C00007971CF080E090E002C081E090E00F907F
:1005D0000F900F900F90DF91CF910895FF920F939E
:1005E0001F93CF93DF93CDB7DEB728970FB6F8945C
:1005F000DEBF0FBECDBF9A8389837C836B835E830E
:100600004D838D819E81FC0180819181019709F04C
:1006100003C189819A81FC0180819181DC0111965D
:100620008B819C81FC01808191819C012150310949
:1006300038872F8389819A81FC01808191819C0177
:100640002F5F3F4F8B819C81FC018081918149818B
:100650005A81FA0140815181BA016F5F7F4F4B810E
:100660005C81FA01408151814F5F5F4F8B01000F28
:10067000111F000F111F000F111F040F151F0E5423
:100680001D4F0F2EFEE2FF2EF02DF801F082660FB7
:10069000771F660F771F660F771F460F571F4E5441
:1006A0005D4FFA016081A901440F551F440F551F8A
:1006B000440F551F480F591F4E545D4FFA01608378
:1006C000220F331F220F331F220F331F820F931F5E
:1006D0008E549D4FFC012081CD01880F991F880FFA
:1006E000991F880F991F4F815885840F951F8E542D
:1006F0009D4FFC01208389819A81FC01A081B181F9
:100700008B819C81FC01808191819C012150310968
:1007100038872F8389819A81FC01208131818B81E7
:100720009C81FC018081918149815A81FA0160811B
:1007300071814B815C81FA01408151814F5F5F4F34
:100740008B01000F111F000F111F000F111F040F4D
:10075000151F0E541D4F0F2EFAE2FF2EF02DF8013B
:10076000F082660F771F660F771F660F771F460FA1
:10077000571F4E545D4FFA016081A901440F551F68
:10078000440F551F440F551F480F591F4E545D4FBE
:10079000FA016083220F331F220F331F220F331FF2
:1007A000820F931F8E549D4FFC012081CD01880F35
:1007B000991F880F991F880F991F4F815885840FA3
:1007C000951F8E549D4FFC01208389819A81FC01E5
:1007D000808191819C01215031098B819C81FC0198
:1007E00080819181220F331F220F331F220F331F6D
:1007F000820F931F8E549D4F2AE2FC012083898132
:100800009A81FC01808191819C012150310989816B
:100810009A81FC01318320838D819E81FC0180813E
:1008200091810297F1F589819A81FC0120813181C2
:100830008B819C81FC0180819181220F331F220FCB
:10084000331F220F331F820F931F8E549D4F2EE2B2
:10085000FC01208389819A81FC01808191819C0126
:10086000225031098B819C81FC0180819181220F72
:10087000331F220F331F220F331F820F931F8E54FB
:100880009D4F2AE2FC01208389819A81FC018081AD
:1008900091819C012250310989819A81FC01318327
:1008A00020838D819E81FC0180819181039709F0D5
:1008B0004DC089819A81FC01808191819C012F5FCB
:1008C0003F4F8B819C81FC01808191810197220F98
:1008D000331F220F331F220F331F820F931F8E549B
:1008E0009D4F2EE2FC01208389819A81FC012081A9
:1008F00031818B819C81FC01808191810297220F43
:10090000331F220F331F220F331F820F931F8E546A
:100910009D4F2AE2FC01208389819A81FC0180811C
:1009200091819C012150310989819A81FC01318397
:1009300020838B819C81FC01808191819C012150CD
:1009400031098B819C81FC01318320838D819E81C3
:10095000FC0180819181049709F04DC089819A81C1
:10096000FC01808191819C012F5F3F4F8B819C8195
:10097000FC01808191810196220F331F220F331FCA
:10098000220F331F820F931F8E549D4F2EE2FC01C6
:10099000208389819A81FC01208131818B819C8116
:1009A000FC01808191810296220F331F220F331F99
:1009B000220F331F820F931F8E549D4F2AE2FC019A
:1009C000208389819A81FC01808191819C01215041
:1009D000310989819A81FC01318320838B819C813B
:1009E000FC01808191819C012F5F3F4F8B819C8115
:1009F000FC01318320838D819E8121E030E0FC0168
:100A00003183208328960FB6F894DEBF0FBECDBF8A
:100A1000DF91CF911F910F91FF900895FF920F9357
:100A20001F93CF93DF9300D0CDB7DEB780913E0305
:100A300090913F0305970CF4CAC18091680390918F
:100A40006903019709F0F1C080913E0390913F0343
:100A5000DC01119680914A0390914B039C01215037
:100A600031093A83298380913E0390913F039C0191
:100A70002F5F3F4F80914A0390914B0340913E037B
:100A800050913F03BA016F5F7F4F40914A035091ED
:100A90004B034F5F5F4F8B01000F111F000F111FA2
:100AA000000F111F040F151F0E541D4F0F2EFEE2D5
:100AB000FF2EF02DF801F082660F771F660F771F6B
:100AC000660F771F460F571F4E545D4FFA01608126
:100AD000A901440F551F440F551F440F551F480FC0
:100AE000591F4E545D4FFA016083220F331F220FAE
:100AF000331F220F331F820F931F8E549D4FFC0113
:100B00002081CD01880F991F880F991F880F991F89
:100B100049815A81840F951F8E549D4FFC0120837B
:100B2000A0913E03B0913F0380914A0390914B0303
:100B30009C01215031093A83298320913E03309151
:100B40003F0380914A0390914B0360913E03709163
:100B50003F0340914A0350914B034F5F5F4F8B011E
:100B6000000F111F000F111F000F111F040F151F81
:100B70000E541D4F0F2EFAE2FF2EF02DF801F082D9
:100B8000660F771F660F771F660F771F460F571F79
:100B90004E545D4FFA016081A901440F551F440F67
:100BA000551F440F551F480F591F4E545D4FFA01F2
:100BB0006083220F331F220F331F220F331F820F38
:100BC000931F8E549D4FFC012081CD01880F991FEA
:100BD000880F991F880F991F49815A81840F951F8B
:100BE0008E549D4FFC01208380913E0390913F03E2
:100BF0009C012150310980914A0390914B03220FAF
:100C0000331F220F331F220F331F820F931F8E5467
:100C10009D4F2AE2FC01208380913E0390913F0387
:100C2000019790933F0380933E03809168039091D6
:100C300069030297B1F520913E0330913F03809103
:100C40004A0390914B03220F331F220F331F220FB1
:100C5000331F820F931F8E549D4F2EE2FC01208381
:100C600080913E0390913F039C0122503109809175
:100C70004A0390914B03220F331F220F331F220F81
:100C8000331F820F931F8E549D4F2AE2FC01208355
:100C900080913E0390913F03029790933F0380938E
:100CA0003E038091680390916903039709F041C066
:100CB00080913E0390913F039C012F5F3F4F8091B5
:100CC0004A0390914B030197220F331F220F331FCA
:100CD000220F331F820F931F8E549D4F2EE2FC0173
:100CE000208320913E0330913F0380914A039091ED
:100CF0004B030297220F331F220F331F220F331F84
:100D0000820F931F8E549D4F2AE2FC012083809115
:100D10003E0390913F03019790933F0380933E03DE
:100D200080914A0390914B03019790934B038093DA
:100D30004A038091680390916903049709F041C0C8
:100D400080913E0390913F039C012F5F3F4F809124
:100D50004A0390914B030196220F331F220F331F3A
:100D6000220F331F820F931F8E549D4F2EE2FC01E2
:100D7000208320913E0330913F0380914A0390915C
:100D80004B030296220F331F220F331F220F331FF4
:100D9000820F931F8E549D4F2AE2FC012083809185
:100DA0003E0390913F03019790933F0380933E034E
:100DB00080914A0390914B03019690934B0380934B
:100DC0004A0381E090E090936903809368030F9059
:100DD0000F90DF91CF911F910F91FF900895FF9297
:100DE0000F931F93CF93DF93CDB7DEB728970FB63E
:100DF000F894DEBF0FBECDBF9A8389837C836B835B
:100E00005E834D838D819E81FC018081918102975B
:100E100009F003C189819A81FC0180819181DC0103
:100E200011978B819C81FC01808191819C012150D3
:100E3000310938872F8389819A81FC0180819181D2
:100E40009C01215031098B819C81FC018081918121
:100E500049815A81FA0140815181BA016150710979
:100E60004B815C81FA01408151814F5F5F4F8B0163
:100E7000000F111F000F111F000F111F040F151F6E
:100E80000E541D4F0F2EFEE2FF2EF02DF801F082C2
:100E9000660F771F660F771F660F771F460F571F66
:100EA0004E545D4FFA016081A901440F551F440F54
:100EB000551F440F551F480F591F4E545D4FFA01DF
:100EC0006083220F331F220F331F220F331F820F25
:100ED000931F8E549D4FFC012081CD01880F991FD7
:100EE000880F991F880F991F4F815885840F951F70
:100EF0008E549D4FFC01208389819A81FC01A08141
:100F0000B1818B819C81FC01808191819C01215068
:100F1000310938872F8389819A81FC0120813181B1
:100F20008B819C81FC018081918149815A81FA01E8
:100F3000608171814B815C81FA01408151814F5FF9
:100F40005F4F8B01000F111F000F111F000F111FAA
:100F5000040F151F0E541D4F0F2EFAE2FF2EF02D19
:100F6000F801F082660F771F660F771F660F771FF5
:100F7000460F571F4E545D4FFA016081A901440F7F
:100F8000551F440F551F440F551F480F591F4E54EE
:100F90005D4FFA016083220F331F220F331F220F90
:100FA000331F820F931F8E549D4FFC012081CD0172
:100FB000880F991F880F991F880F991F4F81588597
:100FC000840F951F8E549D4FFC01208389819A8147
:100FD000FC01808191819C012F5F3F4F8B819C811F
:100FE000FC0180819181220F331F220F331F220FBA
:100FF000331F820F931F8E549D4F2AE2FC012083E2
:1010000089819A81FC01808191819C012F5F3F4FF2
:1010100089819A81FC01318320838D819E81FC012D
:10102000808191810197F1F589819A81FC0120816C
:1010300031818B819C81FC0180819181220F331F42
:10104000220F331F220F331F820F931F8E549D4F89
:101050002EE2FC01208389819A81FC0180819181AB
:101060009C012E5F3F4F8B819C81FC01808191818F
:10107000220F331F220F331F220F331F820F931FA4
:101080008E549D4F2AE2FC01208389819A81FC01C4
:10109000808191819C012E5F3F4F89819A81FC0163
:1010A000318320838D819E81FC0180819181039712
:1010B00009F04DC089819A81FC01808191819C0158
:1010C000215031098B819C81FC01808191810197A4
:1010D000220F331F220F331F220F331F820F931F44
:1010E0008E549D4F2EE2FC01208389819A81FC0160
:1010F000208131818B819C81FC01808191810297CB
:10110000220F331F220F331F220F331F820F931F13
:101110008E549D4F2AE2FC01208389819A81FC0133
:10112000808191819C012F5F3F4F89819A81FC01D1
:10113000318320838B819C81FC01808191819C0182
:10114000215031098B819C81FC01318320838D8169
:101150009E81FC0180819181049709F04DC08981B5
:101160009A81FC01808191819C01215031098B8100
:101170009C81FC01808191810196220F331F220FF7
:10118000331F220F331F820F931F8E549D4F2EE269
:10119000FC01208389819A81FC01208131818B812E
:1011A0009C81FC01808191810296220F331F220FC6
:1011B000331F220F331F820F931F8E549D4F2AE23D
:1011C000FC01208389819A81FC01808191819C01AD
:1011D0002F5F3F4F89819A81FC01318320838B816E
:1011E0009C81FC01808191819C012F5F3F4F8B810D
:1011F0009C81FC01318320838D819E8122E030E03F
:10120000FC013183208328960FB6F894DEBF0FBE11
:10121000CDBFDF91CF911F910F91FF900895FF9265
:101220000F931F93CF93DF9300D0CDB7DEB780919C
:101230003E0390913F030B970CF0CAC18091680365
:1012400090916903029709F0F1C080913E0390915B
:101250003F03DC01119780914A0390914B039C015D
:10126000215031093A83298380913E0390913F03B5
:101270009C012150310980914A0390914B03409188
:101280003E0350913F03BA016150710940914A03F6
:1012900050914B034F5F5F4F8B01000F111F000FE9
:1012A000111F000F111F040F151F0E541D4F0F2E7D
:1012B000FEE2FF2EF02DF801F082660F771F660F19
:1012C000771F660F771F460F571F4E545D4FFA0169
:1012D0006081A901440F551F440F551F440F551F2E
:1012E000480F591F4E545D4FFA016083220F331F80
:1012F000220F331F220F331F820F931F8E549D4FD7
:10130000FC012081CD01880F991F880F991F880F3C
:10131000991F49815A81840F951F8E549D4FFC015E
:101320002083A0913E03B0913F0380914A039091A6
:101330004B039C01215031093A83298320913E03BC
:1013400030913F0380914A0390914B0360913E039B
:1013500070913F0340914A0350914B034F5F5F4FA1
:101360008B01000F111F000F111F000F111F040F21
:10137000151F0E541D4F0F2EFAE2FF2EF02DF8010F
:10138000F082660F771F660F771F660F771F460F75
:10139000571F4E545D4FFA016081A901440F551F3C
:1013A000440F551F440F551F480F591F4E545D4F92
:1013B000FA016083220F331F220F331F220F331FC6
:1013C000820F931F8E549D4FFC012081CD01880F09
:1013D000991F880F991F880F991F49815A81840F7F
:1013E000951F8E549D4FFC01208380913E03909168
:1013F0003F039C012F5F3F4F80914A0390914B0325
:10140000220F331F220F331F220F331F820F931F10
:101410008E549D4F2AE2FC01208380913E039091DF
:101420003F03019690933F0380933E0380916803AE
:10143000909169030197B1F520913E0330913F03EC
:1014400080914A0390914B03220F331F220F331FC9
:10145000220F331F820F931F8E549D4F2EE2FC01EB
:10146000208380913E0390913F039C012E5F3F4F6C
:1014700080914A0390914B03220F331F220F331F99
:10148000220F331F820F931F8E549D4F2AE2FC01BF
:10149000208380913E0390913F03029690933F03F7
:1014A00080933E038091680390916903039709F04C
:1014B00041C080913E0390913F039C01215031092E
:1014C00080914A0390914B030197220F331F220F03
:1014D000331F220F331F820F931F8E549D4F2EE216
:1014E000FC01208320913E0330913F0380914A0309
:1014F00090914B030297220F331F220F331F220FAD
:10150000331F820F931F8E549D4F2AE2FC012083CC
:1015100080913E0390913F03019690933F03809307
:101520003E0380914A0390914B03019790934B03A4
:1015300080934A038091680390916903049709F0AE
:1015400041C080913E0390913F039C01215031099D
:1015500080914A0390914B030196220F331F220F73
:10156000331F220F331F820F931F8E549D4F2EE285
:10157000FC01208320913E0330913F0380914A0378
:1015800090914B030296220F331F220F331F220F1D
:10159000331F820F931F8E549D4F2AE2FC0120833C
:1015A00080913E0390913F03019690933F03809377
:1015B0003E0380914A0390914B03019690934B0315
:1015C00080934A0382E090E09093690380936803DC
:1015D0000F900F90DF91CF911F910F91FF90089581
:1015E000FF920F931F93CF93DF93CDB7DEB728976A
:1015F0000FB6F894DEBF0FBECDBF9A8389837C837C
:101600006B835E834D838D819E81FC0180819181FE
:10161000039709F000C189819A81FC018081918141
:10162000DC0111978B819C81FC01808191819C015F
:101630002150310938872F8389819A81FC012081CB
:1016400031818B819C81FC0180819181019749814D
:101650005A81FA0140815181BA016F5F7F4F4B81FE
:101660005C81FA0140815181415051098B01000F89
:10167000111F000F111F000F111F040F151F0E5413
:101680001D4F0F2EFEE2FF2EF02DF801F082660FA7
:10169000771F660F771F660F771F460F571F4E5431
:1016A0005D4FFA016081A901440F551F440F551F7A
:1016B000440F551F480F591F4E545D4FFA01608368
:1016C000220F331F220F331F220F331F820F931F4E
:1016D0008E549D4FFC012081CD01880F991F880FEA
:1016E000991F880F991F4F815885840F951F8E541D
:1016F0009D4FFC01208389819A81FC018081918129
:10170000DC0111978B819C81FC010190F081E02D1F
:10171000F887EF8389819A81FC01208131818B8157
:101720009C81FC018081918149815A81FA0140812B
:101730005181BA016F5F7F4F4B815C81FA0140811B
:1017400051818B01000F111F000F111F000F111F7E
:10175000040F151F0E541D4F0F2EFAE2FF2EF02D11
:10176000F801F082660F771F660F771F660F771FED
:10177000460F571F4E545D4FFA016081A901440F77
:10178000551F440F551F440F551F480F591F4E54E6
:101790005D4FFA016083220F331F220F331F220F88
:1017A000331F820F931F8E549D4FFC012081CD016A
:1017B000880F991F880F991F880F991F4F8158858F
:1017C000840F951F8E549D4FFC01208389819A813F
:1017D000FC01208131818B819C81FC018081918180
:1017E0000196220F331F220F331F220F331F820F48
:1017F000931F8E549D4F2AE2FC0120838B819C8194
:10180000FC01808191819C012F5F3F4F8B819C81E6
:10181000FC01318320838D819E81FC018081918137
:10182000019709F04FC089819A81FC0180819181E3
:101830009C012F5F3F4F8B819C81FC0180819181B6
:101840000197220F331F220F331F220F331F820FE6
:10185000931F8E549D4F2EE2FC01208389819A8133
:10186000FC01808191819C012E5F3F4F8B819C8187
:10187000FC0180819181220F331F220F331F220F21
:10188000331F820F931F8E549D4F2AE2FC01208349
:1018900089819A81FC01808191819C012F5F3F4F5A
:1018A00089819A81FC01318320838B819C81FC0199
:1018B000808191819C012F5F3F4F8B819C81FC0136
:1018C000318320838D819E81FC01808191810297EB
:1018D00009F04FC089819A81FC01808191819C012E
:1018E000215031098B819C81FC018081918101977C
:1018F000220F331F220F331F220F331F820F931F1C
:101900008E549D4F2EE2FC01208389819A81FC0137
:10191000808191819C01225031098B819C81FC0145
:1019200080819181220F331F220F331F220F331F1B
:10193000820F931F8E549D4F2AE2FC0120838981E0
:101940009A81FC01808191819C012150310989811A
:101950009A81FC01318320838B819C81FC018081F1
:1019600091819C012F5F3F4F8B819C81FC013183D2
:1019700020838D819E81FC01808191810497E1F516
:1019800089819A81FC01208131818B819C81FC01BC
:1019900080819181220F331F220F331F220F331FAB
:1019A000820F931F8E549D4F2EE2FC01208389816C
:1019B0009A81FC01208131818B819C81FC01808195
:1019C00091810296220F331F220F331F220F331FE4
:1019D000820F931F8E549D4F2AE2FC0120838B813E
:1019E0009C81FC01808191819C012E5F3F4F8B8106
:1019F0009C81FC01318320838D819E8123E030E036
:101A0000FC013183208328960FB6F894DEBF0FBE09
:101A1000CDBFDF91CF911F910F91FF900895FF925D
:101A20000F931F93CF93DF9300D0CDB7DEB7809194
:101A30004A0390914B03079709F4C8C1809168034A
:101A400090916903039709F0EDC080913E03909156
:101A50003F03DC01119780914A0390914B039C0155
:101A6000215031093A83298320913E0330913F036D
:101A700080914A0390914B03019740913E0350910E
:101A80003F03BA016F5F7F4F40914A0350914B0370
:101A9000415051098B01000F111F000F111F000F42
:101AA000111F040F151F0E541D4F0F2EFEE2FF2EA7
:101AB000F02DF801F082660F771F660F771F660F13
:101AC000771F460F571F4E545D4FFA016081A901E1
:101AD000440F551F440F551F440F551F480F591FE2
:101AE0004E545D4FFA016083220F331F220F331FC4
:101AF000220F331F820F931F8E549D4FFC012081B4
:101B0000CD01880F991F880F991F880F991F498150
:101B10005A81840F951F8E549D4FFC012083809124
:101B20003E0390913F03DC01119720914A033091CD
:101B30004B033A83298320913E0330913F038091E8
:101B40004A0390914B0340913E0350913F03BA01E9
:101B50006F5F7F4F40914A0350914B038B01000F01
:101B6000111F000F111F000F111F040F151F0E541E
:101B70001D4F0F2EFAE2FF2EF02DF801F082660FB6
:101B8000771F660F771F660F771F460F571F4E543C
:101B90005D4FFA016081A901440F551F440F551F85
:101BA000440F551F480F591F4E545D4FFA01608373
:101BB000220F331F220F331F220F331F820F931F59
:101BC0008E549D4FFC012081CD01880F991F880FF5
:101BD000991F880F991F49815A81840F951F8E5430
:101BE0009D4FFC01208320913E0330913F03809163
:101BF0004A0390914B030196220F331F220F331F8C
:101C0000220F331F820F931F8E549D4F2AE2FC0137
:101C1000208380914A0390914B03019690934B034C
:101C200080934A038091680390916903019709F0BA
:101C300043C080913E0390913F039C012F5F3F4F33
:101C400080914A0390914B030197220F331F220F7B
:101C5000331F220F331F820F931F8E549D4F2EE28E
:101C6000FC01208380913E0390913F039C012E5FF5
:101C70003F4F80914A0390914B03220F331F220F55
:101C8000331F220F331F820F931F8E549D4F2AE262
:101C9000FC01208380913E0390913F030196909335
:101CA0003F0380933E0380914A0390914B0301963A
:101CB00090934B0380934A0380916803909169034A
:101CC000029709F043C080913E0390913F039C012D
:101CD0002150310980914A0390914B030197220FC3
:101CE000331F220F331F220F331F820F931F8E5477
:101CF0009D4F2EE2FC01208380913E0390913F0393
:101D00009C012250310980914A0390914B03220F8C
:101D1000331F220F331F220F331F820F931F8E5446
:101D20009D4F2AE2FC01208380913E0390913F0366
:101D3000019790933F0380933E0380914A039091D3
:101D40004B03019690934B0380934A038091680361
:101D5000909169030497A1F520913E0330913F03D0
:101D600080914A0390914B03220F331F220F331FA0
:101D7000220F331F820F931F8E549D4F2EE2FC01C2
:101D8000208320913E0330913F0380914A0390913C
:101D90004B030296220F331F220F331F220F331FD4
:101DA000820F931F8E549D4F2AE2FC012083809165
:101DB0004A0390914B03029690934B0380934A03FE
:101DC00083E090E090936903809368030F900F90F5
:101DD000DF91CF911F910F91FF900895FF920F9384
:101DE0001F93CF93DF93CDB7DEB728970FB6F89444
:101DF000DEBF0FBECDBF9A8389837C836B835E83F6
:101E00004D838D819E81FC0180819181049709F031
:101E100000C189819A81FC0180819181DC01119747
:101E20008B819C81FC01808191819C012F5F3F4FC0
:101E300038872F8389819A81FC01208131818B81B0
:101E40009C81FC0180819181019649815A81FA012E
:101E500040815181BA016F5F7F4F4B815C81FA01F4
:101E6000408151814F5F5F4F8B01000F111F000FA9
:101E7000111F000F111F040F151F0E541D4F0F2EA1
:101E8000FEE2FF2EF02DF801F082660F771F660F3D
:101E9000771F660F771F460F571F4E545D4FFA018D
:101EA0006081A901440F551F440F551F440F551F52
:101EB000480F591F4E545D4FFA016083220F331FA4
:101EC000220F331F220F331F820F931F8E549D4FFB
:101ED000FC012081CD01880F991F880F991F880F61
:101EE000991F4F815885840F951F8E549D4FFC017B
:101EF000208389819A81FC0180819181DC01119785
:101F00008B819C81FC010190F081E02DF887EF83AB
:101F100089819A81FC01208131818B819C81FC0126
:101F20008081918149815A81FA0140815181BA01B0
:101F30006F5F7F4F4B815C81FA01408151818B0142
:101F4000000F111F000F111F000F111F040F151F8D
:101F50000E541D4F0F2EFAE2FF2EF02DF801F082E5
:101F6000660F771F660F771F660F771F460F571F85
:101F70004E545D4FFA016081A901440F551F440F73
:101F8000551F440F551F480F591F4E545D4FFA01FE
:101F90006083220F331F220F331F220F331F820F44
:101FA000931F8E549D4FFC012081CD01880F991FF6
:101FB000880F991F880F991F4F815885840F951F8F
:101FC0008E549D4FFC01208389819A81FC012081E0
:101FD00031818B819C81FC01808191810197220F4D
:101FE000331F220F331F220F331F820F931F8E5474
:101FF0009D4F2AE2FC0120838B819C81FC01808122
:1020000091819C01215031098B819C81FC0131839C
:1020100020838D819E81FC0180819181019709F04F
:102020004FC089819A81FC01808191819C012F5F41
:102030003F4F8B819C81FC01808191810196220F11
:10204000331F220F331F220F331F820F931F8E5413
:102050009D4F2EE2FC01208389819A81FC018081C1
:1020600091819C012E5F3F4F8B819C81FC0180817F
:102070009181220F331F220F331F220F331F820F34
:10208000931F8E549D4F2AE2FC01208389819A81FF
:10209000FC01808191819C012F5F3F4F89819A8152
:1020A000FC01318320838B819C81FC0180819181A3
:1020B0009C01215031098B819C81FC01318320835B
:1020C0008D819E81FC0180819181029709F04FC032
:1020D00089819A81FC01808191819C012150310983
:1020E0008B819C81FC01808191810196220F331F9D
:1020F000220F331F220F331F820F931F8E549D4FC9
:102100002EE2FC01208389819A81FC0180819181EA
:102110009C01225031098B819C81FC01808191813D
:10212000220F331F220F331F220F331F820F931FE3
:102130008E549D4F2AE2FC01208389819A81FC0103
:10214000808191819C012150310989819A81FC0112
:10215000318320838B819C81FC01808191819C0152
:10216000215031098B819C81FC01318320838D8139
:102170009E81FC01808191810397E1F589819A819B
:10218000FC01208131818B819C81FC0180819181C6
:10219000220F331F220F331F220F331F820F931F73
:1021A0008E549D4F2EE2FC01208389819A81FC018F
:1021B000208131818B819C81FC01808191810297FA
:1021C000220F331F220F331F220F331F820F931F43
:1021D0008E549D4F2AE2FC0120838B819C81FC015F
:1021E000808191819C01225031098B819C81FC016D
:1021F000318320838D819E8124E030E0FC01318396
:10220000208328960FB6F894DEBF0FBECDBFDF91B6
:10221000CF911F910F91FF900895FF920F931F93FD
:10222000CF93DF9300D0CDB7DEB780914A03909172
:102230004B03892B09F4C8C180916803909169030D
:10224000049709F0EDC080913E0390913F03DC01BB
:10225000119780914A0390914B039C012F5F3F4F50
:102260003A83298320913E0330913F0380914A03B2
:1022700090914B03019640913E0350913F03BA0168
:102280006F5F7F4F40914A0350914B034F5F5F4F09
:102290008B01000F111F000F111F000F111F040FE2
:1022A000151F0E541D4F0F2EFEE2FF2EF02DF801CC
:1022B000F082660F771F660F771F660F771F460F36
:1022C000571F4E545D4FFA016081A901440F551FFD
:1022D000440F551F440F551F480F591F4E545D4F53
:1022E000FA016083220F331F220F331F220F331F87
:1022F000820F931F8E549D4FFC012081CD01880FCA
:10230000991F880F991F880F991F49815A81840F3F
:10231000951F8E549D4FFC01208380913E03909128
:102320003F03DC01119720914A0330914B033A831C
:10233000298320913E0330913F0380914A0390917D
:102340004B0340913E0350913F03BA016F5F7F4FB3
:1023500040914A0350914B038B01000F111F000F56
:10236000111F000F111F040F151F0E541D4F0F2EAC
:10237000FAE2FF2EF02DF801F082660F771F660F4C
:10238000771F660F771F460F571F4E545D4FFA0198
:102390006081A901440F551F440F551F440F551F5D
:1023A000480F591F4E545D4FFA016083220F331FAF
:1023B000220F331F220F331F820F931F8E549D4F06
:1023C000FC012081CD01880F991F880F991F880F6C
:1023D000991F49815A81840F951F8E549D4FFC018E
:1023E000208320913E0330913F0380914A039091D6
:1023F0004B030197220F331F220F331F220F331F6E
:10240000820F931F8E549D4F2AE2FC0120838091FE
:102410004A0390914B03019790934B0380934A0397
:102420008091680390916903019709F043C08091FE
:102430003E0390913F039C012F5F3F4F80914A03E1
:1024400090914B030196220F331F220F331F220F4F
:10245000331F820F931F8E549D4F2EE2FC01208369
:1024600080913E0390913F039C012E5F3F4F8091EE
:102470004A0390914B03220F331F220F331F220F69
:10248000331F820F931F8E549D4F2AE2FC0120833D
:1024900080913E0390913F03019690933F03809378
:1024A0003E0380914A0390914B03019790934B0315
:1024B00080934A038091680390916903029709F021
:1024C00043C080913E0390913F039C01215031090C
:1024D00080914A0390914B030196220F331F220FE4
:1024E000331F220F331F820F931F8E549D4F2EE2F6
:1024F000FC01208380913E0390913F039C01225078
:10250000310980914A0390914B03220F331F220F10
:10251000331F220F331F820F931F8E549D4F2AE2C9
:10252000FC01208380913E0390913F03019790939B
:102530003F0380933E0380914A0390914B030197A0
:1025400090934B0380934A038091680390916903B1
:102550000397A1F520913E0330913F0380914A03F8
:1025600090914B03220F331F220F331F220F331F73
:10257000820F931F8E549D4F2EE2FC0120832091E9
:102580003E0330913F0380914A0390914B030297A1
:10259000220F331F220F331F220F331F820F931F6F
:1025A0008E549D4F2AE2FC01208380914A03909132
:1025B0004B03029790934B0380934A0384E090E08F
:1025C00090936903809368030F900F90DF91CF91F0
:1025D0001F910F91FF900895CF93DF9300D000D00B
:1025E000CDB7DEB71A82198250C01C821B8243C04D
:1025F00089819A819C01220F331F220F331F220FE2
:10260000331F8B819C81820F931F8E549D4FFC0141
:1026100080818E32B9F489819A819C01220F331F07
:10262000220F331F220F331F8B819C81820F931F38
:10263000880F991F84579F4F21E030E0FC013183C0
:10264000208314C089819A819C01220F331F220F9D
:10265000331F220F331F8B819C81820F931F880FA2
:10266000991F84579F4FFC01118210828B819C819E
:1026700001969C838B838B819C8108970CF4B8CF47
:1026800089819A8101969A83898389819A81409769
:102690000CF4ABCF0F900F900F900F90DF91CF9174
:1026A0000895CF93DF93CDB7DEB764970FB6F89454
:1026B000DEBF0FBECDBF9C8B8B8B8B899C89019716
:1026C00009F07DC120914C0330914D03809132037C
:1026D00090913303B9010E94C602892B09F440C1CD
:1026E0008091320390913303019790933303809349
:1026F0003203209132033091330380914C03909147
:102700004D03220F331F220F331F220F331F820F5F
:10271000931F8E549D4F2AE2FC01208380914C032D
:1027200090914D0304970CF0B1C01A82198296C0A3
:102730001C821B8289C080E090E4ACE1B6E48D830A
:102740009E83AF83B88720E030E04AE753E46D8191
:102750007E818F8198850E94C31CDC01CB01898713
:102760009A87AB87BC8720E030E040E85FE369856B
:102770007A858B859C850E943D1C88232CF481E002
:1027800090E09E878D873FC020E03FEF4FE757E402
:1027900069857A858B859C850E94BE1C18164CF530
:1027A00020E030E040E251E46D817E818F819885A8
:1027B0000E94C31CDC01CB01BC01CD010E94421C64
:1027C000DC01CB019E878D870FC089E190E0988B5B
:1027D0008F878F8598890197F1F7988B8F878D85E3
:1027E0009E8501979E878D878D859E85892B69F7AC
:1027F00014C069857A858B859C850E94421CDC010A
:10280000CB019E878D878D859E859A8B898B898943
:102810009A890197F1F79A8B898B89819A819C011A
:10282000220F331F220F331F220F331F8B819C81F6
:10283000820F931F8E549D4F2EE2FC0120838B81CB
:102840009C8101969C838B838B819C8104970CF4E3
:1028500072CF89819A8101969A83898389819A812D
:1028600004970CF465CF8AE28093B4028091B4029D
:102870008093B3028091B3028093B2028AE2809384
:10288000BB0210929702109296023EC01A821982E1
:1028900025C084E090E09C838B8317C089819A8156
:1028A0009C01220F331F220F331F220F331F8B81F6
:1028B0009C81820F931F8E549D4F2EE2FC0120833A
:1028C0008B819C8101969C838B838B819C81089753
:1028D0002CF389819A8101969A83898389819A81CF
:1028E0000497BCF28AE28093B9028091B902809386
:1028F000B8028091B8028093B7028AE28093C00246
:10290000109299021092980210928D0210928C02ED
:1029100080913203909133039C012F5F3F4F809150
:102920003E0390913F032817390709F448C080916E
:102930003203909133039C012F5F3F4F80914C03F2
:1029400090914D03220F331F220F331F220F331F8D
:10295000820F931F8E549D4F2EE2FC0120832FC0C7
:10296000209132033091330380913E0390913F03D5
:102970002817390759F420914C0330914D03809169
:102980004A0390914B0328173907C9F0209132036D
:102990003091330380914C0390914D03220F331FEC
:1029A000220F331F220F331F820F931F8E549D4F10
:1029B0002EE2FC01208310928D0210928C028B89F2
:1029C0009C89029709F00DC120914C0330914D0371
:1029D0008091320390913303B9010E94C602892B82
:1029E00009F4D0C080913203909133030196909303
:1029F000330380933203209132033091330380916B
:102A00004C0390914D03220F331F220F331F220FCF
:102A1000331F820F931F8E549D4F2AE2FC012083A7
:102A200080914C0390914D0304970CF03FC08CE0D3
:102A300090E09A83898323C01C821B8217C08981FE
:102A40009A819C01220F331F220F331F220F331F45
:102A50008B819C81820F931F8E549D4F2EE2FC012F
:102A600020838B819C8101969C838B838B819C81AD
:102A700004972CF389819A8101969A8389838981AD
:102A80009A814097CCF28AE280932C0380912C03A8
:102A900080932B0380912B0380932A038AE28093F7
:102AA000230310929B0210929A0240C08CE090E0A7
:102AB0009A83898325C084E090E09C838B8317C030
:102AC00089819A819C01220F331F220F331F220F0D
:102AD000331F8B819C81820F931F8E549D4F2EE25A
:102AE000FC0120838B819C8101969C838B838B814D
:102AF0009C8108972CF389819A8101969A83898316
:102B000089819A814097BCF28AE280933103809157
:102B10003103809330038091300380932F038AE246
:102B20008093280310929D0210929C0210928D02B5
:102B300010928C0280913203909133039C012F5F9D
:102B40003F4F80913E0390913F032817390709F4C6
:102B500048C080913203909133039C012F5F3F4F17
:102B600080914C0390914D03220F331F220F331F8E
:102B7000220F331F820F931F8E549D4F2EE2FC01B4
:102B800020832FC0209132033091330380913E0384
:102B900090913F032817390759F420914C03309145
:102BA0004D0380914A0390914B0328173907C9F0D0
:102BB000209132033091330380914C0390914D0367
:102BC000220F331F220F331F220F331F820F931F39
:102BD0008E549D4F2EE2FC01208310928D021092A4
:102BE0008C028B899C89039709F081C020914C034A
:102BF00030914D038091320390913303B9010E94CB
:102C0000C602892B09F444C080914C0390914D0376
:102C1000019690934D0380934C03209132033091A1
:102C2000330380914C0390914D03220F331F220FE9
:102C3000331F220F331F820F931F8E549D4F2AE2A2
:102C4000FC01208380914C0390914D039C01215005
:102C5000310980914A0390914B032817390709F4F1
:102C600046C0209132033091330380914C03909100
:102C70004D030197220F331F220F331F220F331FE3
:102C8000820F931F8E549D4F2EE2FC0120832FC094
:102C9000209132033091330380913E0390913F03A2
:102CA0002817390759F420914C0330914D03809136
:102CB0004A0390914B0328173907C9F0209132033A
:102CC0003091330380914C0390914D03220F331FB9
:102CD000220F331F220F331F820F931F8E549D4FDD
:102CE0002EE2FC01208310928D0210928C028B89BF
:102CF0009C89049709F081C020914C0330914D03C9
:102D00008091320390913303B9010E94C602892B4E
:102D100009F444C080914C0390914D030197909326
:102D20004D0380934C032091320330913303809103
:102D30004C0390914D03220F331F220F331F220F9C
:102D4000331F820F931F8E549D4F2AE2FC01208374
:102D500080914C0390914D039C012F5F3F4F8091D8
:102D60004A0390914B032817390709F446C0209174
:102D700032033091330380914C0390914D030196BF
:102D8000220F331F220F331F220F331F820F931F77
:102D90008E549D4F2EE2FC0120832FC020913203E0
:102DA0003091330380913E0390913F0328173907F8
:102DB00059F420914C0330914D0380914A03909136
:102DC0004B0328173907C9F02091320330913303A0
:102DD00080914C0390914D03220F331F220F331F1C
:102DE000220F331F820F931F8E549D4F2EE2FC0142
:102DF000208310928D0210928C0264960FB6F89484
:102E0000DEBF0FBECDBFDF91CF910895CF93DF938B
:102E1000CDB7DEB761970FB6F894DEBF0FBECDBF5A
:102E200084E590E020E8FC01208384E590E020E840
:102E3000FC0120838AE390E02FEFFC01208387E3ED
:102E400090E02FEFFC01208384E390E02FEFFC0162
:102E5000208381E390E020EFFC0120830E94EB01BE
:102E60008BE590E020ECFC01208385E590E025E5F2
:102E700030E0F90120812A60FC01208385E590E0A3
:102E800025E530E0F90120812A7FFC012083789438
:102E900080E390E0FC018081882F90E08170992789
:102EA000892B21F180918C0290918D02892BF1F474
:102EB00081E090E090938D0280938C028091680372
:102EC00090916903909341038093400380913E0366
:102ED00090913F03909333038093320380914A0390
:102EE00090914B0390934D0380934C0380E390E0CB
:102EF000FC018081882F90E082709927892BB9F09E
:102F000080919E0290919F02892B39F481E090E09C
:102F100090939F0280939E020AC080919E0290919E
:102F20009F02019721F410929F0210929E028091BD
:102F30009002909191020196909391028093900259
:102F400080918E0290918F02019690938F028093D0
:102F50008E02809192029091930201969093930237
:102F6000809392020E94EC120E94D71A0E94101ABB
:102F700080919002909191020B9784F080918C0245
:102F800090918D02019731F480914003909141031B
:102F90000E945113109291021092900280918E0221
:102FA00090918F020B9754F180919E0290919F0215
:102FB000892B21F58091680390916903019711F4A1
:102FC0000E940E058091680390916903029711F4A5
:102FD0000E940F098091680390916903039711F48F
:102FE0000E940F0D8091680390916903049711F47A
:102FF0000E940D1110928F0210928E028091920207
:10300000909193020B970CF480C18091960290915D
:10301000970229E030E0B9010E94151C8C599F4F9E
:10302000FC01808189838981873741F446E353E03D
:1030300068E573E082EA92E00E94EE0289818337BC
:1030400041F446E353E068E573E082EA92E00E94CF
:10305000EF068981843641F446E353E068E573E086
:1030600082EA92E00E94F00A8981813641F446E3C7
:1030700053E068E573E082EA92E00E94EE0E8091F0
:1030800098029091990229E030E0B9010E94151C44
:1030900082599F4FFC01808189838981873741F460
:1030A00048E353E06AE573E084EA92E00E94EE02AE
:1030B0008981833741F448E353E06AE573E084EAA9
:1030C00092E00E94EF068981843641F448E353E0A0
:1030D0006AE573E084EA92E00E94F00A8981813611
:1030E00041F448E353E06AE573E084EA92E00E9429
:1030F000EE0E80919A0290919B0229E030E0B90196
:103100000E94151C88589F4FFC018081898389810A
:10311000873741F44AE353E06CE573E086EA92E0D6
:103120000E94EE028981833741F44AE353E06CE563
:1031300073E086EA92E00E94EF068981843641F4CA
:103140004AE353E06CE573E086EA92E00E94F00AFD
:103150008981813641F44AE353E06CE573E086EA05
:1031600092E00E94EE0E80919C0290919D0229E0D7
:1031700030E0B9010E94151C8E579F4FFC018081E1
:1031800089838981873741F44CE353E06EE573E02E
:1031900088EA92E00E94EE028981833741F44CE391
:1031A00053E06EE573E088EA92E00E94EF068981C1
:1031B000843641F44CE353E06EE573E088EA92E034
:1031C0000E94F00A8981813641F44CE353E06EE5B8
:1031D00073E088EA92E00E94EE0E80919602909150
:1031E000970201969093970280939602809196029F
:1031F0009091970229E030E0B9010E94151C90934C
:103200009702809396028091960290919702892B63
:1032100049F48091960290919702019690939702BB
:1032200080939602809198029091990201969093D2
:10323000990280939802809198029091990229E0D6
:1032400030E0B9010E94151C909399028093980276
:103250008091980290919902892B49F4809198026B
:10326000909199020196909399028093980280918F
:103270009A0290919B02019690939B0280939A02EE
:1032800080919A0290919B0229E030E0B9010E945E
:10329000151C90939B0280939A0280919A029091C0
:1032A0009B02892B49F480919A0290919B0201968E
:1032B00090939B0280939A0280919C0290919D0230
:1032C000019690939D0280939C0280919C02909124
:1032D0009D0229E030E0B9010E94151C90939D02E7
:1032E00080939C0280919C0290919D02892B49F4CD
:1032F00080919C0290919D02019690939D028093F3
:103300009C021092930210929202C2CDCF93DF934F
:10331000CDB7DEB72E970FB6F894DEBF0FBECDBF88
:1033200087E390E02FEFFC01208380E090E0A8ECA1
:10333000B3E489839A83AB83BC8320E030E04AE71F
:1033400053E469817A818B819C810E94C31CDC01DA
:10335000CB018D839E83AF83B88720E030E040E8C7
:103360005FE36D817E818F8198850E943D1C88235B
:103370002CF481E090E09A8789873FC020E03FEFFE
:103380004FE757E46D817E818F8198850E94BE1C36
:1033900018164CF520E030E040E251E469817A8172
:1033A0008B819C810E94C31CDC01CB01BC01CD013F
:1033B0000E94421CDC01CB019A8789870FC089E1FA
:1033C00090E09C878B878B859C850197F1F79C8784
:1033D0008B8789859A8501979A87898789859A85B8
:1033E000892B69F714C06D817E818F8198850E9439
:1033F000421CDC01CB019A87898789859A859E8743
:103400008D878D859E850197F1F79E878D872E96F6
:103410000FB6F894DEBF0FBECDBFDF91CF910895F8
:10342000CF93DF93CDB7DEB760970FB6F894DEBFCA
:103430000FBECDBF80E88A8388E390E0FC01108254
:1034400088E08983A7C085E390E0FC01108282E3D5
:1034500090E029812295207FFC01208388E390E081
:103460002981222F30E028503109205A3C4FF901A0
:103470002081FC0120838BE390E02981222F30E022
:103480002850310926553D4FF9012081FC01208348
:1034900080E090E0A0E8BFE38B839C83AD83BE8394
:1034A00020E030E04AE753E46B817C818D819E818E
:1034B0000E94C31CDC01CB018F839887A987BA8740
:1034C00020E030E040E85FE36F81788589859A8568
:1034D0000E943D1C88232CF481E090E09C878B8720
:1034E0003FC020E03FEF4FE757E46F817885898543
:1034F0009A850E94BE1C18164CF520E030E040E290
:1035000051E46B817C818D819E810E94C31CDC0112
:10351000CB01BC01CD010E94421CDC01CB019C8788
:103520008B870FC089E190E09E878D878D859E8572
:103530000197F1F79E878D878B859C8501979C87E6
:103540008B878B859C85892B69F714C06F81788563
:1035500089859A850E94421CDC01CB019C878B8760
:103560008B859C85988B8F878F8598890197F1F73C
:10357000988B8F8788E390E0FC0110828BE390E0CA
:10358000FC01108285E390E021E0FC012083898129
:103590008F5F89838981803108F455CF60960FB69B
:1035A000F894DEBF0FBECDBFDF91CF910895CF93CA
:1035B000DF9300D000D000D0CDB7DEB71C821B82D5
:1035C00044C01A82198287E090E09E838D832DC0CB
:1035D0008D819E819C01220F331F220F331F220FEA
:1035E000331F8B819C81820F931F880F991F8457F3
:1035F0009F4FFC0180819181019739F489819A81E3
:10360000880F991F9A8389830BC089819A81880FBB
:10361000991F9A83898389819A8101969A838983E4
:103620008D819E8101979E838D838D819E819923BB
:103630007CF629818B819C81805A9C4FFC012083E0
:103640008B819C8101969C838B838B819C810897C5
:103650000CF4B7CF1C821B8244C01A8219828FE0FF
:1036600090E09E838D832DC08D819E819C01220FD1
:10367000331F220F331F220F331F8B819C81820F38
:10368000931F880F991F84579F4FFC018081918160
:10369000019739F489819A81880F991F9A838983C8
:1036A0000BC089819A81880F991F9A8389838981A8
:1036B0009A8101969A8389838D819E8101979E8349
:1036C0008D838D819E8108977CF629818B819C81D9
:1036D00086559D4FFC0120838B819C8101969C83A4
:1036E0008B838B819C8108970CF4B7CF1C821B8243
:1036F00042C01A8219821E821D822DC08D819E8138
:103700009C01220F331F220F331F220F331F8B8187
:103710009C81820F931F880F991F84579E4FFC0135
:1037200080819181892B39F489819A81880F991F31
:103730009A8389830BC089819A81880F991F9A8304
:10374000898389819A8101969A8389838D819E815B
:1037500001969E838D838D819E8108977CF22981BD
:103760008B819C818E5B9C4FFC0120838B819C8193
:1037700001969C838B838B819C8108970CF4B9CF35
:103780001C821B8244C01A82198288E090E09E83CA
:103790008D832DC08D819E819C01220F331F220FAE
:1037A000331F220F331F8B819C81820F931F880F41
:1037B000991F84579E4FFC0180819181892B39F498
:1037C00089819A81880F991F9A8389830BC0898187
:1037D0009A81880F991F9A83898389819A8101969A
:1037E0009A8389838D819E8101969E838D838D81AD
:1037F0009E8140977CF229818B819C81825B9C4FCA
:10380000FC0120838B819C8101969C838B838B811F
:103810009C8108970CF4B7CF26960FB6F894DEBFBC
:103820000FBECDBFDF91CF91089597FB072E16F401
:10383000009407D077FD09D00E94291C07FC05D011
:103840003EF4909581959F4F0895709561957F4FB7
:103850000895AA1BBB1B51E107C0AA1FBB1FA617D7
:10386000B70710F0A61BB70B881F991F5A95A9F729
:1038700080959095BC01CD0108950E94711C08F4BB
:1038800081E008950E949D1C88F09F5798F0B92F01
:103890009927B751B0F0E1F0660F771F881F991F85
:1038A0001AF0BA95C9F714C0B13091F00E94B71C54
:1038B000B1E008950C94B71C672F782F8827B85F64
:1038C00039F0B93FCCF3869577956795B395D9F7DD
:1038D0003EF490958095709561957F4F8F4F9F4FE7
:1038E0000895990F0008550FAA0BE0E8FEEF161691
:1038F0001706E807F907C0F012161306E407F507E4
:1039000098F0621B730B840B950B39F40A2661F057
:10391000232B242B252B21F408950A2609F4A140FA
:10392000A6958FEF811D811D089557FD9058440F76
:10393000551F59F05F3F71F04795880F97FB991F0E
:1039400061F09F3F79F087950895121613061406CB
:10395000551FF2CF4695F1DF08C016161706180658
:10396000991FF1CF86957105610508940895E89433
:10397000BB2766277727CB0197F908950E94711C12
:1039800008F48FEF08950E94D61C0C94471D0E94E6
:10399000391D38F00E94401D20F0952311F00C9441
:1039A000301D0C94361D11240C94B81C0E94951CDB
:1039B00070F3959FC1F3950F50E0551F629FF00182
:1039C000729FBB27F00DB11D639FAA27F00DB11D9B
:1039D000AA1F649F6627B00DA11D661F829F222724
:1039E000B00DA11D621F739FB00DA11D621F839FAB
:1039F000A00D611D221F749F3327A00D611D231F81
:103A0000849F600D211D822F762F6A2F11249F57CE
:103A100050409AF0F1F088234AF0EE0FFF1FBB1FD1
:103A2000661F771F881F91505040A9F79E3F510590
:103A300080F00C94301D0C94B81C5F3FE4F3983E6A
:103A4000D4F3869577956795B795F795E7959F5F3A
:103A5000C1F7FE2B880F911D9695879597F90895CC
:103A600097F99F6780E870E060E008959FEF80EC31
:103A7000089500240A9416161706180609060895D4
:103A800000240A9412161306140605060895092E3A
:103A90000394000C11F4882352F0BB0F40F4BF2BA9
:103AA00011F460FF04C06F5F7F4F8F4F9F4F0895E9
:043AB000F894FFCFB8
:103AB400777364617373646477776161730073739C
:103AC40061617777646473007777646473736161A9
:103AD4007700777761617373646477000000010095
:103AE40001000100010001000100010001000000CB
:103AF40001000100010001000100010001000100BA
:103B040000000100010001000100010001000100AA
:103B1400010000000100010001000100010001009A
:103B2400000001000100010001000100010000008B
:103B3400010001000100010001000100000001007A
:103B4400010001000100010001000100010000006A
:103B54000100010001000100010001000100010059
:103B6400000001000100010001000100010001004A
:103B7400010000000100010001000100010001003A
:103B8400000001000100010001000100010000002B
:103B9400010001000100010001000100000001001A
:103BA400010001000100010001000100010000000A
:103BB40001000100010001000100010001000100F9
:103BC40000000100010001000100010001000100EA
:103BD40001000000010001000100010001000100DA
:103BE40001000100010001000100000001000100CA
:103BF40001000100010001000000010001000100BA
:103C040001000100010000000100010001000100A9
:103C14000100010000000100010001000100010099
:103C24000100010001000000010001000100010089
:103C34000100010001000100000001000100010079
:103C44000100010001000100010000000100010069
:103C54000100010001000100000001000100010059
:103C64000100010001000000010001000100010049
:103C74000100010000000100010001000100010039
:103C84000100010001000000010001000100010029
:103C94000100010001000100000001000100010019
:103CA4000100010001000100010000000100010009
:103CB40001000100010001000000010001000100F9
:103CC40001000100010000000100010001000100E9
:0C3CD400010001000000010001000100DF
:00000001FF
