:100000000C942A000C9449000C941A010C9447009B
:100010000C9447000C9447000C9447000C94470044
:100020000C9447000C9447000C9447000C94470034
:100030000C9447000C9447000C9447000C94470024
:100040000C9447000C9447000C9447000C94470014
:100050000C94470011241FBECFE5D8E0DEBFCDBF12
:1000600012E0A0E6B0E0E2EFF1E302C005900D92ED
:10007000AC38B107D9F723E0ACE8B2E001C01D927B
:10008000A035B207E1F70E9451130C94F7180C94B5
:1000900000001F920F9200905F000F9211242F9387
:1000A0003F934F935F936F937F938F939F93AF9300
:1000B000BF93EF93FF93CF93DF93CDB7DEB72E9728
:1000C000DEBFCDBF80914E0390914F03019719F48D
:1000D0000E940F0D1AC080914E0390914F0302971A
:1000E00019F40E940D1111C080914E0390914F039D
:1000F000039719F40E940F0908C080914E03909154
:100100004F03049711F40E940E0580E090E0A8E4EC
:10011000B3E489839A83AB83BC8320E030E04AE771
:1001200053E469817A818B819C810E946218DC0191
:10013000CB018D839E83AF83B88720E030E040E819
:100140005FE36D817E818F8198850E94DC17882313
:100150002CF481E090E09A8789873FC020E03FEF50
:100160004FE757E46D817E818F8198850E945D18ED
:1001700018164CF520E030E040E251E469817A81C4
:100180008B819C810E946218DC01CB01BC01CD01F6
:100190000E94E117DC01CB019A8789870FC089E1B2
:1001A00090E09C878B878B859C850197F1F79C87D6
:1001B0008B8789859A8501979A87898789859A850A
:1001C000892B69F714C06D817E818F8198850E948B
:1001D000E117DC01CB019A87898789859A859E87FB
:1001E0008D878D859E850197F1F79E878D878AE59E
:1001F00090E0FC0180818AE590E02FEFFC012083F4
:100200002E960FB6F894DEBF0FBECDBFDF91CF9113
:10021000FF91EF91BF91AF919F918F917F916F91DE
:100220005F914F913F912F910F9000925F000F903F
:100230001F9018951F920F9200905F000F9211244B
:100240002F933F934F935F936F937F938F939F93DE
:10025000AF93BF93EF93FF93CF93DF93CDB7DEB709
:100260002E97DEBFCDBF80914E0390914F03019733
:1002700019F40E940D111AC080914E0390914F0302
:10028000029719F40E940F0D11C080914E039091B6
:100290004F03039719F40E940E0508C080914E0386
:1002A00090914F03049711F40E940F0980E090E0B1
:1002B000A8E4B3E489839A83AB83BC8320E030E075
:1002C0004AE753E469817A818B819C810E9462189C
:1002D000DC01CB018D839E83AF83B88720E030E0C3
:1002E00040E85FE36D817E818F8198850E94DC17F5
:1002F00088232CF481E090E09A8789873FC020E032
:100300003FEF4FE757E46D817E818F8198850E9492
:100310005D1818164CF520E030E040E251E46981A8
:100320007A818B819C810E946218DC01CB01BC0127
:10033000CD010E94E117DC01CB019A8789870FC0AC
:1003400089E190E09C878B878B859C850197F1F7ED
:100350009C878B8789859A8501979A878987898564
:100360009A85892B69F714C06D817E818F8198856C
:100370000E94E117DC01CB019A87898789859A85DC
:100380009E878D878D859E850197F1F79E878D8746
:100390008AE590E0FC0180818AE590E02FEFFC0186
:1003A00020832E960FB6F894DEBF0FBECDBFDF912F
:1003B000CF91FF91EF91BF91AF919F918F917F91DD
:1003C0006F915F914F913F912F910F9000925F003D
:1003D0000F901F901895CF93DF9300D000D0CDB72A
:1003E000DEB71A82198223C01C821B8217C0898142
:1003F0009A819C01220F331F220F331F220F331FBC
:100400008B819C81820F931F82569D4F2EE2FC01AF
:1004100020838B819C8101969C838B838B819C8123
:1004200008972CF389819A8101969A83898389811F
:100430009A814097CCF28AE28093FA028091FA0284
:100440008093F9028091F9028093F8028AE2809306
:10045000F10281E090E090934F0380934E038AE095
:1004600090E0909329038093280383E090E0909399
:100470003303809332038AE28093A5028091A50220
:100480008093A4028091A4028093A3028091A3028E
:100490008093A0028091A00280939F0280919F028E
:1004A00080939E028AE280931D0380911D038093B6
:1004B0001C0380911C0380931B0380911B0380937A
:1004C000180380911803809317038091170380937A
:1004D00016038AE28093AC028091AC028093A7025B
:1004E0008AE2809314038091140380930F0381E0C8
:1004F00090E090938F0280938E0281E090E0909341
:100500009102809390028EE090E09093930280930A
:1005100092028EE090E0909395028093940281E0A5
:1005200090E090933F0380933E0386E090E09093A9
:1005300041038093400381E090E0909343038093D4
:10054000420386E090E0909345038093440382E069
:1005500090E0909321038093200382E090E09093B9
:1005600023038093220381E090E0909325038093FE
:10057000240381E090E090932703809326030F905B
:100580000F900F900F90DF91CF910895CF93DF934D
:1005900000D000D0CDB7DEB79A8389837C836B838C
:1005A00089819A81181619066CF489819A810F97AE
:1005B0004CF48B819C811816190624F48B819C8144
:1005C00007971CF080E090E002C081E090E00F907F
:1005D0000F900F900F90DF91CF910895FF920F939E
:1005E0001F93CF93DF93CDB7DEB728970FB6F8945C
:1005F000DEBF0FBECDBF9A8389837C836B835E830E
:100600004D838D819E81FC0180819181019709F04C
:1006100003C189819A81FC0180819181DC0111965D
:100620008B819C81FC01808191819C012150310949
:1006300038872F8389819A81FC01808191819C0177
:100640002F5F3F4F8B819C81FC018081918149818B
:100650005A81FA0140815181BA016F5F7F4F4B810E
:100660005C81FA01408151814F5F5F4F8B01000F28
:10067000111F000F111F000F111F040F151F02562D
:100680001D4F0F2EFEE2FF2EF02DF801F082660FB7
:10069000771F660F771F660F771F460F571F42564B
:1006A0005D4FFA016081A901440F551F440F551F8A
:1006B000440F551F480F591F42565D4FFA01608382
:1006C000220F331F220F331F220F331F820F931F5E
:1006D00082569D4FFC012081CD01880F991F880F04
:1006E000991F880F991F4F815885840F951F825637
:1006F0009D4FFC01208389819A81FC01A081B181F9
:100700008B819C81FC01808191819C012150310968
:1007100038872F8389819A81FC01208131818B81E7
:100720009C81FC018081918149815A81FA0160811B
:1007300071814B815C81FA01408151814F5F5F4F34
:100740008B01000F111F000F111F000F111F040F4D
:10075000151F02561D4F0F2EFAE2FF2EF02DF80145
:10076000F082660F771F660F771F660F771F460FA1
:10077000571F42565D4FFA016081A901440F551F72
:10078000440F551F440F551F480F591F42565D4FC8
:10079000FA016083220F331F220F331F220F331FF2
:1007A000820F931F82569D4FFC012081CD01880F3F
:1007B000991F880F991F880F991F4F815885840FA3
:1007C000951F82569D4FFC01208389819A81FC01EF
:1007D000808191819C01215031098B819C81FC0198
:1007E00080819181220F331F220F331F220F331F6D
:1007F000820F931F82569D4F2AE2FC01208389813C
:100800009A81FC01808191819C012150310989816B
:100810009A81FC01318320838D819E81FC0180813E
:1008200091810297F1F589819A81FC0120813181C2
:100830008B819C81FC0180819181220F331F220FCB
:10084000331F220F331F820F931F82569D4F2EE2BC
:10085000FC01208389819A81FC01808191819C0126
:10086000225031098B819C81FC0180819181220F72
:10087000331F220F331F220F331F820F931F825605
:100880009D4F2AE2FC01208389819A81FC018081AD
:1008900091819C012250310989819A81FC01318327
:1008A00020838D819E81FC0180819181039709F0D5
:1008B0004DC089819A81FC01808191819C012F5FCB
:1008C0003F4F8B819C81FC01808191810197220F98
:1008D000331F220F331F220F331F820F931F8256A5
:1008E0009D4F2EE2FC01208389819A81FC012081A9
:1008F00031818B819C81FC01808191810297220F43
:10090000331F220F331F220F331F820F931F825674
:100910009D4F2AE2FC01208389819A81FC0180811C
:1009200091819C012150310989819A81FC01318397
:1009300020838B819C81FC01808191819C012150CD
:1009400031098B819C81FC01318320838D819E81C3
:10095000FC0180819181049709F04DC089819A81C1
:10096000FC01808191819C012F5F3F4F8B819C8195
:10097000FC01808191810196220F331F220F331FCA
:10098000220F331F820F931F82569D4F2EE2FC01D0
:10099000208389819A81FC01208131818B819C8116
:1009A000FC01808191810296220F331F220F331F99
:1009B000220F331F820F931F82569D4F2AE2FC01A4
:1009C000208389819A81FC01808191819C01215041
:1009D000310989819A81FC01318320838B819C813B
:1009E000FC01808191819C012F5F3F4F8B819C8115
:1009F000FC01318320838D819E8121E030E0FC0168
:100A00003183208328960FB6F894DEBF0FBECDBF8A
:100A1000DF91CF911F910F91FF900895FF920F9357
:100A20001F93CF93DF9300D0CDB7DEB7809128031B
:100A30009091290305970CF4CAC180914E039091BF
:100A40004F03019709F0F1C0809128039091290389
:100A5000DC01119680913203909133039C01215067
:100A600031093A83298380912803909129039C01BD
:100A70002F5F3F4F809132039091330340912803C1
:100A800050912903BA016F5F7F4F4091320350911B
:100A900033034F5F5F4F8B01000F111F000F111FBA
:100AA000000F111F040F151F02561D4F0F2EFEE2DF
:100AB000FF2EF02DF801F082660F771F660F771F6B
:100AC000660F771F460F571F42565D4FFA01608130
:100AD000A901440F551F440F551F440F551F480FC0
:100AE000591F42565D4FFA016083220F331F220FB8
:100AF000331F220F331F820F931F82569D4FFC011D
:100B00002081CD01880F991F880F991F880F991F89
:100B100049815A81840F951F82569D4FFC01208385
:100B2000A0912803B091290380913203909133035F
:100B30009C01215031093A83298320912803309167
:100B400029038091320390913303609128037091BF
:100B5000290340913203509133034F5F5F4F8B0164
:100B6000000F111F000F111F000F111F040F151F81
:100B700002561D4F0F2EFAE2FF2EF02DF801F082E3
:100B8000660F771F660F771F660F771F460F571F79
:100B900042565D4FFA016081A901440F551F440F71
:100BA000551F440F551F480F591F42565D4FFA01FC
:100BB0006083220F331F220F331F220F331F820F38
:100BC000931F82569D4FFC012081CD01880F991FF4
:100BD000880F991F880F991F49815A81840F951F8B
:100BE00082569D4FFC012083809128039091290318
:100BF0009C01215031098091320390913303220FDF
:100C0000331F220F331F220F331F820F931F825671
:100C10009D4F2AE2FC0120838091280390912903B3
:100C20000197909329038093280380914E0390911C
:100C30004F030297B1F52091280330912903809149
:100C4000320390913303220F331F220F331F220FE1
:100C5000331F820F931F82569D4F2EE2FC0120838B
:100C600080912803909129039C01225031098091A1
:100C7000320390913303220F331F220F331F220FB1
:100C8000331F820F931F82569D4F2AE2FC0120835F
:100C900080912803909129030297909329038093D0
:100CA000280380914E0390914F03039709F041C0B0
:100CB00080912803909129039C012F5F3F4F8091E1
:100CC0003203909133030197220F331F220F331FFA
:100CD000220F331F820F931F82569D4F2EE2FC017D
:100CE0002083209128033091290380913203909131
:100CF00033030297220F331F220F331F220F331F9C
:100D0000820F931F82569D4F2AE2FC01208380911F
:100D10002803909129030197909329038093280336
:100D20008091320390913303019790933303809322
:100D3000320380914E0390914F03049709F041C014
:100D400080912803909129039C012F5F3F4F809150
:100D50003203909133030196220F331F220F331F6A
:100D6000220F331F820F931F82569D4F2EE2FC01EC
:100D700020832091280330912903809132039091A0
:100D800033030296220F331F220F331F220F331F0C
:100D9000820F931F82569D4F2AE2FC01208380918F
:100DA00028039091290301979093290380932803A6
:100DB0008091320390913303019690933303809393
:100DC000320381E090E090934F0380934E030F90A5
:100DD0000F90DF91CF911F910F91FF900895FF9297
:100DE0000F931F93CF93DF93CDB7DEB728970FB63E
:100DF000F894DEBF0FBECDBF9A8389837C836B835B
:100E00005E834D838D819E81FC018081918102975B
:100E100009F003C189819A81FC0180819181DC0103
:100E200011978B819C81FC01808191819C012150D3
:100E3000310938872F8389819A81FC0180819181D2
:100E40009C01215031098B819C81FC018081918121
:100E500049815A81FA0140815181BA016150710979
:100E60004B815C81FA01408151814F5F5F4F8B0163
:100E7000000F111F000F111F000F111F040F151F6E
:100E800002561D4F0F2EFEE2FF2EF02DF801F082CC
:100E9000660F771F660F771F660F771F460F571F66
:100EA00042565D4FFA016081A901440F551F440F5E
:100EB000551F440F551F480F591F42565D4FFA01E9
:100EC0006083220F331F220F331F220F331F820F25
:100ED000931F82569D4FFC012081CD01880F991FE1
:100EE000880F991F880F991F4F815885840F951F70
:100EF00082569D4FFC01208389819A81FC01A0814B
:100F0000B1818B819C81FC01808191819C01215068
:100F1000310938872F8389819A81FC0120813181B1
:100F20008B819C81FC018081918149815A81FA01E8
:100F3000608171814B815C81FA01408151814F5FF9
:100F40005F4F8B01000F111F000F111F000F111FAA
:100F5000040F151F02561D4F0F2EFAE2FF2EF02D23
:100F6000F801F082660F771F660F771F660F771FF5
:100F7000460F571F42565D4FFA016081A901440F89
:100F8000551F440F551F440F551F480F591F4256F8
:100F90005D4FFA016083220F331F220F331F220F90
:100FA000331F820F931F82569D4FFC012081CD017C
:100FB000880F991F880F991F880F991F4F81588597
:100FC000840F951F82569D4FFC01208389819A8151
:100FD000FC01808191819C012F5F3F4F8B819C811F
:100FE000FC0180819181220F331F220F331F220FBA
:100FF000331F820F931F82569D4F2AE2FC012083EC
:1010000089819A81FC01808191819C012F5F3F4FF2
:1010100089819A81FC01318320838D819E81FC012D
:10102000808191810197F1F589819A81FC0120816C
:1010300031818B819C81FC0180819181220F331F42
:10104000220F331F220F331F820F931F82569D4F93
:101050002EE2FC01208389819A81FC0180819181AB
:101060009C012E5F3F4F8B819C81FC01808191818F
:10107000220F331F220F331F220F331F820F931FA4
:1010800082569D4F2AE2FC01208389819A81FC01CE
:10109000808191819C012E5F3F4F89819A81FC0163
:1010A000318320838D819E81FC0180819181039712
:1010B00009F04DC089819A81FC01808191819C0158
:1010C000215031098B819C81FC01808191810197A4
:1010D000220F331F220F331F220F331F820F931F44
:1010E00082569D4F2EE2FC01208389819A81FC016A
:1010F000208131818B819C81FC01808191810297CB
:10110000220F331F220F331F220F331F820F931F13
:1011100082569D4F2AE2FC01208389819A81FC013D
:10112000808191819C012F5F3F4F89819A81FC01D1
:10113000318320838B819C81FC01808191819C0182
:10114000215031098B819C81FC01318320838D8169
:101150009E81FC0180819181049709F04DC08981B5
:101160009A81FC01808191819C01215031098B8100
:101170009C81FC01808191810196220F331F220FF7
:10118000331F220F331F820F931F82569D4F2EE273
:10119000FC01208389819A81FC01208131818B812E
:1011A0009C81FC01808191810296220F331F220FC6
:1011B000331F220F331F820F931F82569D4F2AE247
:1011C000FC01208389819A81FC01808191819C01AD
:1011D0002F5F3F4F89819A81FC01318320838B816E
:1011E0009C81FC01808191819C012F5F3F4F8B810D
:1011F0009C81FC01318320838D819E8122E030E03F
:10120000FC013183208328960FB6F894DEBF0FBE11
:10121000CDBFDF91CF911F910F91FF900895FF9265
:101220000F931F93CF93DF9300D0CDB7DEB780919C
:101230002803909129030B970CF0CAC180914E03AB
:1012400090914F03029709F0F1C08091280390918B
:101250002903DC01119780913203909133039C01A3
:10126000215031093A8329838091280390912903E1
:101270009C012150310980913203909133034091B8
:10128000280350912903BA0161507109409132033A
:10129000509133034F5F5F4F8B01000F111F000F01
:1012A000111F000F111F040F151F02561D4F0F2E87
:1012B000FEE2FF2EF02DF801F082660F771F660F19
:1012C000771F660F771F460F571F42565D4FFA0173
:1012D0006081A901440F551F440F551F440F551F2E
:1012E000480F591F42565D4FFA016083220F331F8A
:1012F000220F331F220F331F820F931F82569D4FE1
:10130000FC012081CD01880F991F880F991F880F3C
:10131000991F49815A81840F951F82569D4FFC0168
:101320002083A0912803B0912903809132039091EA
:1013300033039C01215031093A83298320912803EA
:1013400030912903809132039091330360912803F7
:101350007091290340913203509133034F5F5F4FE7
:101360008B01000F111F000F111F000F111F040F21
:10137000151F02561D4F0F2EFAE2FF2EF02DF80119
:10138000F082660F771F660F771F660F771F460F75
:10139000571F42565D4FFA016081A901440F551F46
:1013A000440F551F440F551F480F591F42565D4F9C
:1013B000FA016083220F331F220F331F220F331FC6
:1013C000820F931F82569D4FFC012081CD01880F13
:1013D000991F880F991F880F991F49815A81840F7F
:1013E000951F82569D4FFC01208380912803909188
:1013F00029039C012F5F3F4F80913203909133036B
:10140000220F331F220F331F220F331F820F931F10
:1014100082569D4F2AE2FC012083809128039091FF
:1014200029030196909329038093280380914E030A
:1014300090914F030197B1F5209128033091290332
:101440008091320390913303220F331F220F331FF9
:10145000220F331F820F931F82569D4F2EE2FC01F5
:10146000208380912803909129039C012E5F3F4F98
:101470008091320390913303220F331F220F331FC9
:10148000220F331F820F931F82569D4F2AE2FC01C9
:101490002083809128039091290302969093290339
:1014A0008093280380914E0390914F03039709F096
:1014B00041C080912803909129039C01215031095A
:1014C00080913203909133030197220F331F220F33
:1014D000331F220F331F820F931F82569D4F2EE220
:1014E000FC0120832091280330912903809132034D
:1014F000909133030297220F331F220F331F220FC5
:10150000331F820F931F82569D4F2AE2FC012083D6
:101510008091280390912903019690932903809349
:101520002803809132039091330301979093330302
:101530008093320380914E0390914F03049709F0FA
:1015400041C080912803909129039C0121503109C9
:1015500080913203909133030196220F331F220FA3
:10156000331F220F331F820F931F82569D4F2EE28F
:10157000FC012083209128033091290380913203BC
:10158000909133030296220F331F220F331F220F35
:10159000331F820F931F82569D4F2AE2FC01208346
:1015A00080912803909129030196909329038093B9
:1015B0002803809132039091330301969093330373
:1015C0008093320382E090E090934F0380934E0328
:1015D0000F900F90DF91CF911F910F91FF90089581
:1015E000FF920F931F93CF93DF93CDB7DEB728976A
:1015F0000FB6F894DEBF0FBECDBF9A8389837C837C
:101600006B835E834D838D819E81FC0180819181FE
:10161000039709F000C189819A81FC018081918141
:10162000DC0111978B819C81FC01808191819C015F
:101630002150310938872F8389819A81FC012081CB
:1016400031818B819C81FC0180819181019749814D
:101650005A81FA0140815181BA016F5F7F4F4B81FE
:101660005C81FA0140815181415051098B01000F89
:10167000111F000F111F000F111F040F151F02561D
:101680001D4F0F2EFEE2FF2EF02DF801F082660FA7
:10169000771F660F771F660F771F460F571F42563B
:1016A0005D4FFA016081A901440F551F440F551F7A
:1016B000440F551F480F591F42565D4FFA01608372
:1016C000220F331F220F331F220F331F820F931F4E
:1016D00082569D4FFC012081CD01880F991F880FF4
:1016E000991F880F991F4F815885840F951F825627
:1016F0009D4FFC01208389819A81FC018081918129
:10170000DC0111978B819C81FC010190F081E02D1F
:10171000F887EF8389819A81FC01208131818B8157
:101720009C81FC018081918149815A81FA0140812B
:101730005181BA016F5F7F4F4B815C81FA0140811B
:1017400051818B01000F111F000F111F000F111F7E
:10175000040F151F02561D4F0F2EFAE2FF2EF02D1B
:10176000F801F082660F771F660F771F660F771FED
:10177000460F571F42565D4FFA016081A901440F81
:10178000551F440F551F440F551F480F591F4256F0
:101790005D4FFA016083220F331F220F331F220F88
:1017A000331F820F931F82569D4FFC012081CD0174
:1017B000880F991F880F991F880F991F4F8158858F
:1017C000840F951F82569D4FFC01208389819A8149
:1017D000FC01208131818B819C81FC018081918180
:1017E0000196220F331F220F331F220F331F820F48
:1017F000931F82569D4F2AE2FC0120838B819C819E
:10180000FC01808191819C012F5F3F4F8B819C81E6
:10181000FC01318320838D819E81FC018081918137
:10182000019709F04FC089819A81FC0180819181E3
:101830009C012F5F3F4F8B819C81FC0180819181B6
:101840000197220F331F220F331F220F331F820FE6
:10185000931F82569D4F2EE2FC01208389819A813D
:10186000FC01808191819C012E5F3F4F8B819C8187
:10187000FC0180819181220F331F220F331F220F21
:10188000331F820F931F82569D4F2AE2FC01208353
:1018900089819A81FC01808191819C012F5F3F4F5A
:1018A00089819A81FC01318320838B819C81FC0199
:1018B000808191819C012F5F3F4F8B819C81FC0136
:1018C000318320838D819E81FC01808191810297EB
:1018D00009F04FC089819A81FC01808191819C012E
:1018E000215031098B819C81FC018081918101977C
:1018F000220F331F220F331F220F331F820F931F1C
:1019000082569D4F2EE2FC01208389819A81FC0141
:10191000808191819C01225031098B819C81FC0145
:1019200080819181220F331F220F331F220F331F1B
:10193000820F931F82569D4F2AE2FC0120838981EA
:101940009A81FC01808191819C012150310989811A
:101950009A81FC01318320838B819C81FC018081F1
:1019600091819C012F5F3F4F8B819C81FC013183D2
:1019700020838D819E81FC01808191810497E1F516
:1019800089819A81FC01208131818B819C81FC01BC
:1019900080819181220F331F220F331F220F331FAB
:1019A000820F931F82569D4F2EE2FC012083898176
:1019B0009A81FC01208131818B819C81FC01808195
:1019C00091810296220F331F220F331F220F331FE4
:1019D000820F931F82569D4F2AE2FC0120838B8148
:1019E0009C81FC01808191819C012E5F3F4F8B8106
:1019F0009C81FC01318320838D819E8123E030E036
:101A0000FC013183208328960FB6F894DEBF0FBE09
:101A1000CDBFDF91CF911F910F91FF900895FF925D
:101A20000F931F93CF93DF9300D0CDB7DEB7809194
:101A3000320390913303079709F4C8C180914E0394
:101A400090914F03039709F0EDC080912803909186
:101A50002903DC01119780913203909133039C019B
:101A6000215031093A832983209128033091290399
:101A70008091320390913303019740912803509154
:101A80002903BA016F5F7F4F4091320350913303B6
:101A9000415051098B01000F111F000F111F000F42
:101AA000111F040F151F02561D4F0F2EFEE2FF2EB1
:101AB000F02DF801F082660F771F660F771F660F13
:101AC000771F460F571F42565D4FFA016081A901EB
:101AD000440F551F440F551F440F551F480F591FE2
:101AE00042565D4FFA016083220F331F220F331FCE
:101AF000220F331F820F931F82569D4FFC012081BE
:101B0000CD01880F991F880F991F880F991F498150
:101B10005A81840F951F82569D4FFC01208380912E
:101B2000280390912903DC01119720913203309111
:101B300033033A832983209128033091290380912C
:101B40003203909133034091280350912903BA0145
:101B50006F5F7F4F40913203509133038B01000F31
:101B6000111F000F111F000F111F040F151F025628
:101B70001D4F0F2EFAE2FF2EF02DF801F082660FB6
:101B8000771F660F771F660F771F460F571F425646
:101B90005D4FFA016081A901440F551F440F551F85
:101BA000440F551F480F591F42565D4FFA0160837D
:101BB000220F331F220F331F220F331F820F931F59
:101BC00082569D4FFC012081CD01880F991F880FFF
:101BD000991F880F991F49815A81840F951F82563A
:101BE0009D4FFC012083209128033091290380918F
:101BF0003203909133030196220F331F220F331FBC
:101C0000220F331F820F931F82569D4F2AE2FC0141
:101C10002083809132039091330301969093330394
:101C20008093320380914E0390914F03019709F006
:101C300043C080912803909129039C012F5F3F4F5F
:101C400080913203909133030197220F331F220FAB
:101C5000331F220F331F820F931F82569D4F2EE298
:101C6000FC01208380912803909129039C012E5F21
:101C70003F4F8091320390913303220F331F220F85
:101C8000331F220F331F820F931F82569D4F2AE26C
:101C9000FC01208380912803909129030196909361
:101CA0002903809328038091320390913303019696
:101CB000909333038093320380914E0390914F03AE
:101CC000029709F043C080912803909129039C0159
:101CD0002150310980913203909133030197220FF3
:101CE000331F220F331F220F331F820F931F825681
:101CF0009D4F2EE2FC0120838091280390912903BF
:101D00009C01225031098091320390913303220FBC
:101D1000331F220F331F220F331F820F931F825650
:101D20009D4F2AE2FC012083809128039091290392
:101D30000197909329038093280380913203909117
:101D400033030196909333038093320380914E03C3
:101D500090914F030497A1F5209128033091290316
:101D60008091320390913303220F331F220F331FD0
:101D7000220F331F820F931F82569D4F2EE2FC01CC
:101D80002083209128033091290380913203909180
:101D900033030296220F331F220F331F220F331FEC
:101DA000820F931F82569D4F2AE2FC01208380916F
:101DB000320390913303029690933303809332035E
:101DC00083E090E090934F0380934E030F900F9029
:101DD000DF91CF911F910F91FF900895FF920F9384
:101DE0001F93CF93DF93CDB7DEB728970FB6F89444
:101DF000DEBF0FBECDBF9A8389837C836B835E83F6
:101E00004D838D819E81FC0180819181049709F031
:101E100000C189819A81FC0180819181DC01119747
:101E20008B819C81FC01808191819C012F5F3F4FC0
:101E300038872F8389819A81FC01208131818B81B0
:101E40009C81FC0180819181019649815A81FA012E
:101E500040815181BA016F5F7F4F4B815C81FA01F4
:101E6000408151814F5F5F4F8B01000F111F000FA9
:101E7000111F000F111F040F151F02561D4F0F2EAB
:101E8000FEE2FF2EF02DF801F082660F771F660F3D
:101E9000771F660F771F460F571F42565D4FFA0197
:101EA0006081A901440F551F440F551F440F551F52
:101EB000480F591F42565D4FFA016083220F331FAE
:101EC000220F331F220F331F820F931F82569D4F05
:101ED000FC012081CD01880F991F880F991F880F61
:101EE000991F4F815885840F951F82569D4FFC0185
:101EF000208389819A81FC0180819181DC01119785
:101F00008B819C81FC010190F081E02DF887EF83AB
:101F100089819A81FC01208131818B819C81FC0126
:101F20008081918149815A81FA0140815181BA01B0
:101F30006F5F7F4F4B815C81FA01408151818B0142
:101F4000000F111F000F111F000F111F040F151F8D
:101F500002561D4F0F2EFAE2FF2EF02DF801F082EF
:101F6000660F771F660F771F660F771F460F571F85
:101F700042565D4FFA016081A901440F551F440F7D
:101F8000551F440F551F480F591F42565D4FFA0108
:101F90006083220F331F220F331F220F331F820F44
:101FA000931F82569D4FFC012081CD01880F991F00
:101FB000880F991F880F991F4F815885840F951F8F
:101FC00082569D4FFC01208389819A81FC012081EA
:101FD00031818B819C81FC01808191810197220F4D
:101FE000331F220F331F220F331F820F931F82567E
:101FF0009D4F2AE2FC0120838B819C81FC01808122
:1020000091819C01215031098B819C81FC0131839C
:1020100020838D819E81FC0180819181019709F04F
:102020004FC089819A81FC01808191819C012F5F41
:102030003F4F8B819C81FC01808191810196220F11
:10204000331F220F331F220F331F820F931F82561D
:102050009D4F2EE2FC01208389819A81FC018081C1
:1020600091819C012E5F3F4F8B819C81FC0180817F
:102070009181220F331F220F331F220F331F820F34
:10208000931F82569D4F2AE2FC01208389819A8109
:10209000FC01808191819C012F5F3F4F89819A8152
:1020A000FC01318320838B819C81FC0180819181A3
:1020B0009C01215031098B819C81FC01318320835B
:1020C0008D819E81FC0180819181029709F04FC032
:1020D00089819A81FC01808191819C012150310983
:1020E0008B819C81FC01808191810196220F331F9D
:1020F000220F331F220F331F820F931F82569D4FD3
:102100002EE2FC01208389819A81FC0180819181EA
:102110009C01225031098B819C81FC01808191813D
:10212000220F331F220F331F220F331F820F931FE3
:1021300082569D4F2AE2FC01208389819A81FC010D
:10214000808191819C012150310989819A81FC0112
:10215000318320838B819C81FC01808191819C0152
:10216000215031098B819C81FC01318320838D8139
:102170009E81FC01808191810397E1F589819A819B
:10218000FC01208131818B819C81FC0180819181C6
:10219000220F331F220F331F220F331F820F931F73
:1021A00082569D4F2EE2FC01208389819A81FC0199
:1021B000208131818B819C81FC01808191810297FA
:1021C000220F331F220F331F220F331F820F931F43
:1021D00082569D4F2AE2FC0120838B819C81FC0169
:1021E000808191819C01225031098B819C81FC016D
:1021F000318320838D819E8124E030E0FC01318396
:10220000208328960FB6F894DEBF0FBECDBFDF91B6
:10221000CF911F910F91FF900895FF920F931F93FD
:10222000CF93DF9300D0CDB7DEB78091320390918A
:102230003303892B09F4C8C180914E0390914F0359
:10224000049709F0EDC08091280390912903DC01E7
:10225000119780913203909133039C012F5F3F4F80
:102260003A832983209128033091290380913203F6
:102270009091330301964091280350912903BA01AC
:102280006F5F7F4F40913203509133034F5F5F4F39
:102290008B01000F111F000F111F000F111F040FE2
:1022A000151F02561D4F0F2EFEE2FF2EF02DF801D6
:1022B000F082660F771F660F771F660F771F460F36
:1022C000571F42565D4FFA016081A901440F551F07
:1022D000440F551F440F551F480F591F42565D4F5D
:1022E000FA016083220F331F220F331F220F331F87
:1022F000820F931F82569D4FFC012081CD01880FD4
:10230000991F880F991F880F991F49815A81840F3F
:10231000951F82569D4FFC01208380912803909148
:102320002903DC01119720913203309133033A8362
:1023300029832091280330912903809132039091C1
:1023400033034091280350912903BA016F5F7F4FF7
:1023500040913203509133038B01000F111F000F86
:10236000111F000F111F040F151F02561D4F0F2EB6
:10237000FAE2FF2EF02DF801F082660F771F660F4C
:10238000771F660F771F460F571F42565D4FFA01A2
:102390006081A901440F551F440F551F440F551F5D
:1023A000480F591F42565D4FFA016083220F331FB9
:1023B000220F331F220F331F820F931F82569D4F10
:1023C000FC012081CD01880F991F880F991F880F6C
:1023D000991F49815A81840F951F82569D4FFC0198
:1023E000208320912803309129038091320390911A
:1023F00033030197220F331F220F331F220F331F86
:10240000820F931F82569D4F2AE2FC012083809108
:1024100032039091330301979093330380933203F7
:1024200080914E0390914F03019709F043C0809132
:102430002803909129039C012F5F3F4F8091320325
:10244000909133030196220F331F220F331F220F67
:10245000331F820F931F82569D4F2EE2FC01208373
:1024600080912803909129039C012E5F3F4F80911A
:10247000320390913303220F331F220F331F220F99
:10248000331F820F931F82569D4F2AE2FC01208347
:1024900080912803909129030196909329038093BA
:1024A0002803809132039091330301979093330373
:1024B0008093320380914E0390914F03029709F06D
:1024C00043C080912803909129039C012150310938
:1024D00080913203909133030196220F331F220F14
:1024E000331F220F331F820F931F82569D4F2EE200
:1024F000FC01208380912803909129039C012250A4
:1025000031098091320390913303220F331F220F40
:10251000331F220F331F820F931F82569D4F2AE2D3
:10252000FC012083809128039091290301979093C7
:1025300029038093280380913203909133030197FC
:10254000909333038093320380914E0390914F0315
:102550000397A1F52091280330912903809132033C
:1025600090913303220F331F220F331F220F331F8B
:10257000820F931F82569D4F2EE2FC0120832091F3
:1025800028033091290380913203909133030297FD
:10259000220F331F220F331F220F331F820F931F6F
:1025A00082569D4F2AE2FC01208380913203909154
:1025B00033030297909333038093320384E090E0D7
:1025C00090934F0380934E030F900F90DF91CF9124
:1025D0001F910F91FF900895CF93DF9300D000D00B
:1025E000CDB7DEB71A82198250C01C821B8243C04D
:1025F00089819A819C01220F331F220F331F220FE2
:10260000331F8B819C81820F931F82569D4FFC014B
:1026100080818E32B9F489819A819C01220F331F07
:10262000220F331F220F331F8B819C81820F931F38
:10263000880F991F84579F4F21E030E0FC013183C0
:10264000208314C089819A819C01220F331F220F9D
:10265000331F220F331F8B819C81820F931F880FA2
:10266000991F84579F4FFC01118210828B819C819E
:1026700001969C838B838B819C8108970CF4B8CF47
:1026800089819A8101969A83898389819A81409769
:102690000CF4ABCF0F900F900F900F90DF91CF9174
:1026A0000895CF93DF93CDB7DEB769970FB6F8944F
:1026B000DEBF0FBECDBF84E590E020E8FC012083A3
:1026C00084E590E020E8FC0120838AE390E02FEF8E
:1026D000FC01208387E390E02FEFFC01208384E35B
:1026E00090E02FEFFC01208381E390E020EFFC01DC
:1026F00020830E94EB011A8219821C821B821E8297
:102700001D8218861F821A8619861C861B861E86C5
:102710001D868BE590E020ECFC01208385E590E0B0
:1027200025E530E0F90120812A60FC01208385E560
:1027300090E025E530E0F90120812A7FFC0120832B
:10274000789489819A8101969A8389838B819C816F
:1027500001969C838B830E94EC120E9476160E9445
:10276000601589819A810B9714F180914E039091A5
:102770004F03019711F40E940E0580914E03909132
:102780004F03029711F40E940F0980914E0390911C
:102790004F03039711F40E940F0D80914E03909107
:1027A0004F03049711F40E940D111A8219828B8134
:1027B0009C810B970CF4F9C08D819E8129E030E05B
:1027C000B9010E94B4178C599F4FFC0180818F87FB
:1027D0008F85873741F440E253E06EE373E08EE883
:1027E00092E00E94EE028F85833741F440E253E08D
:1027F0006EE373E08EE892E00E94EF068F858436E8
:1028000041F440E253E06EE373E08EE892E00E9410
:10281000F00A8F85813641F440E253E06EE373E0C5
:102820008EE892E00E94EE0E8D819E8129E030E0DC
:10283000B9010E94B41782599F4FFC0180818F8794
:102840008F85873741F442E253E060E473E080E92A
:1028500092E00E94EE028F85833741F442E253E01A
:1028600060E473E080E992E00E94EF068F85843691
:1028700041F442E253E060E473E080E992E00E94B8
:10288000F00A8F85813641F442E253E060E473E060
:1028900080E992E00E94EE0E8D819E8129E030E079
:1028A000B9010E94B41788589F4FFC0180818F871F
:1028B0008F85873741F444E253E062E473E082E9B4
:1028C00092E00E94EE028F85833741F444E253E0A8
:1028D00062E473E082E992E00E94EF068F8584361D
:1028E00041F444E253E062E473E082E992E00E9442
:1028F000F00A8F85813641F444E253E062E473E0EC
:1029000082E992E00E94EE0E8D819E8129E030E006
:10291000B9010E94B4178E579F4FFC0180818F87A9
:102920008F85873741F446E253E064E473E084E93D
:1029300092E00E94EE028F85833741F446E253E035
:1029400064E473E084E992E00E94EF068F858436A8
:1029500041F446E253E064E473E084E992E00E94CB
:10296000F00A8F85813641F446E253E064E473E077
:1029700084E992E00E94EE0E8D819E8101969E83F5
:102980008D838D819E8129E030E0B9010E94B417CA
:102990009E838D838D819E81892B29F48D819E81DB
:1029A00001969E838D831C821B82CBCECF93DF93B7
:1029B000CDB7DEB72E970FB6F894DEBF0FBECDBFF2
:1029C00087E390E02FEFFC01208380E090E0A8EC0B
:1029D000B3E489839A83AB83BC8320E030E04AE789
:1029E00053E469817A818B819C810E946218DC01A9
:1029F000CB018D839E83AF83B88720E030E040E831
:102A00005FE36D817E818F8198850E94DC1788232A
:102A10002CF481E090E09A8789873FC020E03FEF67
:102A20004FE757E46D817E818F8198850E945D1804
:102A300018164CF520E030E040E251E469817A81DB
:102A40008B819C810E946218DC01CB01BC01CD010D
:102A50000E94E117DC01CB019A8789870FC089E1C9
:102A600090E09C878B878B859C850197F1F79C87ED
:102A70008B8789859A8501979A87898789859A8521
:102A8000892B69F714C06D817E818F8198850E94A2
:102A9000E117DC01CB019A87898789859A859E8712
:102AA0008D878D859E850197F1F79E878D872E9660
:102AB0000FB6F894DEBF0FBECDBFDF91CF91089562
:102AC000CF93DF93CDB7DEB760970FB6F894DEBF34
:102AD0000FBECDBF80E88A8388E390E0FC011082BE
:102AE00088E08983A7C085E390E0FC01108282E33F
:102AF00090E029812295207FFC01208388E390E0EB
:102B00002981222F30E0285031092A5B3C4FF901FE
:102B10002081FC0120838BE390E02981222F30E08B
:102B2000285031092A563D4FF9012081FC012083AC
:102B300080E090E0A0E8BFE38B839C83AD83BE83FD
:102B400020E030E04AE753E46B817C818D819E81F7
:102B50000E946218DC01CB018F839887A987BA870E
:102B600020E030E040E85FE36F81788589859A85D1
:102B70000E94DC1788232CF481E090E09C878B87EF
:102B80003FC020E03FEF4FE757E46F8178858985AC
:102B90009A850E945D1818164CF520E030E040E25E
:102BA00051E46B817C818D819E810E946218DC01E1
:102BB000CB01BC01CD010E94E117DC01CB019C8758
:102BC0008B870FC089E190E09E878D878D859E85DC
:102BD0000197F1F79E878D878B859C8501979C8750
:102BE0008B878B859C85892B69F714C06F817885CD
:102BF00089859A850E94E117DC01CB019C878B8730
:102C00008B859C85988B8F878F8598890197F1F7A5
:102C1000988B8F8788E390E0FC0110828BE390E033
:102C2000FC01108285E390E021E0FC012083898192
:102C30008F5F89838981803108F455CF60960FB604
:102C4000F894DEBF0FBECDBFDF91CF910895CF9333
:102C5000DF9300D000D01F92CDB7DEB79D838C8369
:102C60001A82198237C089819A812C813D81820F15
:102C7000931FFC01808180788B838B81881F88273C
:102C8000881F8B8389819A812C813D81820F931FBC
:102C900029813A814C815D81240F351FF901208102
:102CA000220FFC01208389819A812C813D81820F32
:102CB000931F29813A814C815D81240F351FF901D1
:102CC00030812B81232BFC01208389819A810196FD
:102CD0009A83898389819A8108972CF20F900F90AB
:102CE0000F900F900F90DF91CF910895CF93DF93C6
:102CF00000D000D000D0CDB7DEB71C821B8244C00C
:102D00001A82198287E090E09E838D832DC08D8189
:102D10009E819C01220F331F220F331F220F331F6E
:102D20008B819C81820F931F880F991F84579F4F1F
:102D3000FC0180819181019739F489819A81880F02
:102D4000991F9A8389830BC089819A81880F991F63
:102D50009A83898389819A8101969A8389838D8157
:102D60009E8101979E838D838D819E8199237CF620
:102D700029818B819C818A5B9C4FFC0120838B8104
:102D80009C8101969C838B838B819C8108970CF49A
:102D9000B7CF1C821B8244C01A8219828FE090E058
:102DA0009E838D832DC08D819E819C01220F331FB8
:102DB000220F331F220F331F8B819C81820F931FA1
:102DC000880F991F84579F4FFC0180819181019743
:102DD00039F489819A81880F991F9A8389830BC05E
:102DE00089819A81880F991F9A83898389819A8121
:102DF00001969A8389838D819E8101979E838D831D
:102E00008D819E8108977CF629818B819C818A56D1
:102E10009D4FFC0120838B819C8101969C838B8339
:102E20008B819C8108970CF4B7CF1C821B8242C017
:102E30001A8219821E821D822DC08D819E819C0165
:102E4000220F331F220F331F220F331F8B819C81D0
:102E5000820F931F880F991F84579E4FFC0180811A
:102E60009181892B39F489819A81880F991F9A83DE
:102E700089830BC089819A81880F991F9A838983DE
:102E800089819A8101969A8389838D819E81019699
:102E90009E838D838D819E8108977CF229818B8111
:102EA0009C81865D9C4FFC0120838B819C810196D7
:102EB0009C838B838B819C8108970CF4B9CF1C82F7
:102EC0001B8244C01A82198288E090E09E838D8321
:102ED0002DC08D819E819C01220F331F220F331F35
:102EE000220F331F8B819C81820F931F880F991FA4
:102EF00084579E4FFC0180819181892B39F489810F
:102F00009A81880F991F9A8389830BC089819A813E
:102F1000880F991F9A83898389819A8101969A8360
:102F200089838D819E8101969E838D838D819E8173
:102F300040977CF229818B819C818C5C9C4FFC01A9
:102F400020838B819C8101969C838B838B819C81C8
:102F500008970CF4B7CF26960FB6F894DEBF0FBED5
:102F6000CDBFDF91CF91089597FB072E16F4009403
:102F700007D077FD09D00E94C81707FC05D03EF4A2
:102F8000909581959F4F0895709561957F4F089515
:102F9000AA1BBB1B51E107C0AA1FBB1FA617B7077F
:102FA00010F0A61BB70B881F991F5A95A9F780959B
:102FB0009095BC01CD0108950E94101808F481E09D
:102FC00008950E943C1888F09F5798F0B92F9927D0
:102FD000B751B0F0E1F0660F771F881F991F1AF004
:102FE000BA95C9F714C0B13091F00E945618B1E0FB
:102FF00008950C945618672F782F8827B85F39F0FA
:10300000B93FCCF3869577956795B395D9F73EF49C
:1030100090958095709561957F4F8F4F9F4F089544
:10302000990F0008550FAA0BE0E8FEEF16161706D9
:10303000E807F907C0F012161306E407F50798F041
:10304000621B730B840B950B39F40A2661F0232B5A
:10305000242B252B21F408950A2609F4A140A695D6
:103060008FEF811D811D089557FD9058440F551F06
:1030700059F05F3F71F04795880F97FB991F61F0FA
:103080009F3F79F087950895121613061406551F71
:10309000F2CF4695F1DF08C0161617061806991FDD
:1030A000F1CF86957105610508940895E894BB27D2
:1030B00066277727CB0197F908950E94101808F426
:1030C0008FEF08950E9475180C94E6180E94D81886
:1030D00038F00E94DF1820F0952311F00C94CF18DF
:1030E0000C94D51811240C9457180E94341870F3BE
:1030F000959FC1F3950F50E0551F629FF001729F9D
:10310000BB27F00DB11D639FAA27F00DB11DAA1FAB
:10311000649F6627B00DA11D661F829F2227B00DF8
:10312000A11D621F739FB00DA11D621F839FA00D83
:10313000611D221F749F3327A00D611D231F849FD3
:10314000600D211D822F762F6A2F11249F5750402A
:103150009AF0F1F088234AF0EE0FFF1FBB1F661FA5
:10316000771F881F91505040A9F79E3F510580F06E
:103170000C94CF180C9457185F3FE4F3983ED4F3A7
:10318000869577956795B795F795E7959F5FC1F712
:10319000FE2B880F911D9695879597F9089597F9BD
:1031A0009F6780E870E060E008959FEF80EC0895ED
:1031B00000240A9416161706180609060895002416
:1031C0000A9412161306140605060895092E039490
:1031D000000C11F4882352F0BB0F40F4BF2B11F404
:1031E00060FF04C06F5F7F4F8F4F9F4F0895F8942B
:0231F000FFCF0F
:1031F2007773646173736464777761617300737367
:103202006161777764647300777764647373616173
:10321200770077776161737364647700000001005F
:103222000100010001000100010001000100000095
:103232000100010001000100010001000100010084
:103242000000010001000100010001000100010075
:103252000100000001000100010001000100010065
:103262000000010001000100010001000100000056
:103272000100010001000100010001000000010045
:103282000100010001000100010001000100000035
:103292000100010001000100010001000100010024
:1032A2000000010001000100010001000100010015
:1032B2000100000001000100010001000100010005
:1032C20000000100010001000100010001000000F6
:1032D20001000100010001000100010000000100E5
:1032E20001000100010001000100010001000000D5
:1032F20001000100010001000100010001000100C4
:1033020000000100010001000100010001000100B4
:1033120001000000010001000100010001000100A4
:103322000100010001000100010000000100010094
:103332000100010001000100000001000100010084
:103342000100010001000000010001000100010074
:103352000100010000000100010001000100010064
:103362000100010001000000010001000100010054
:103372000100010001000100000001000100010044
:103382000100010001000100010000000100010034
:103392000100010001000100000001000100010024
:1033A2000100010001000000010001000100010014
:1033B2000100010000000100010001000100010004
:1033C20001000100010000000100010001000100F4
:1033D20001000100010001000000010001000100E4
:1033E20001000100010001000100000001000100D4
:1033F20001000100010001000000010001000100C4
:1034020001000100010000000100010001000100B3
:0C341200010001000000010001000100A9
:00000001FF
