:100000000C942A000C9434000C9434000C943400AA
:100010000C9434000C9434000C9434000C94340090
:100020000C9434000C9434000C9434000C94340080
:100030000C9434000C9434000C9434000C94340070
:100040000C9434000C9434000C9434000C94340060
:100050000C94340011241FBECFE5D8E0DEBFCDBF25
:100060000E9436000C940E020C940000CF93DF9394
:10007000CDB7DEB760970FB6F894DEBF0FBECDBF29
:100080008AE390E02FEFFC01208387E390E02FEFDD
:10009000FC01208381E390E02FEFFC0120831A8292
:1000A00019829BC08BE390E021E030E0098002C020
:1000B000220F331F0A94E2F7FC01208388E390E0CB
:1000C00021E030E0098002C0220F331F0A94E2F7DA
:1000D000FC01208382E390E021E030E0098002C04F
:1000E000220F331F0A94E2F7FC01208380E090E0A6
:1000F000A0E8BFE38B839C83AD83BE8320E030E028
:100100004AE753E46B817C818D819E810E94790155
:10011000DC01CB018F839887A987BA8720E030E084
:1001200040E85FE36F81788589859A850E94F300B6
:1001300088232CF481E090E09C878B873FC020E0EF
:100140003FEF4FE757E46F81788589859A850E9454
:10015000740118164CF520E030E040E251E46B8168
:100160007C818D819E810E947901DC01CB01BC01E3
:10017000CD010E94F800DC01CB019C878B870FC06A
:1001800089E190E09E878D878D859E850197F1F7A7
:100190009E878D878B859C8501979C878B878B8518
:1001A0009C85892B69F714C06F81788589859A852C
:1001B0000E94F800DC01CB019C878B878B859C8596
:1001C000988B8F878F8598890197F1F7988B8F8708
:1001D00089819A8101969A83898389819A81089776
:1001E0000CF460CF5CCF0E94270108F481E00895F1
:1001F0000E94530188F09F5798F0B92F9927B75163
:10020000B0F0E1F0660F771F881F991F1AF0BA95BA
:10021000C9F714C0B13091F00E946D01B1E00895AA
:100220000C946D01672F782F8827B85F39F0B93F9C
:10023000CCF3869577956795B395D9F73EF490956D
:100240008095709561957F4F8F4F9F4F0895990FBF
:100250000008550FAA0BE0E8FEEF16161706E80790
:10026000F907C0F012161306E407F50798F0621BB1
:10027000730B840B950B39F40A2661F0232B242B86
:10028000252B21F408950A2609F4A140A6958FEFA5
:10029000811D811D089557FD9058440F551F59F039
:1002A0005F3F71F04795880F97FB991F61F09F3F63
:1002B00079F087950895121613061406551FF2CF8C
:1002C0004695F1DF08C0161617061806991FF1CFDC
:1002D00086957105610508940895E894BB27662703
:1002E0007727CB0197F908950E94270108F48FEF33
:1002F00008950E948C010C94FD010E94EF0138F0DA
:100300000E94F60120F0952311F00C94E6010C9464
:10031000EC0111240C946E010E944B0170F3959F27
:10032000C1F3950F50E0551F629FF001729FBB27EC
:10033000F00DB11D639FAA27F00DB11DAA1F649F88
:100340006627B00DA11D661F829F2227B00DA11D3B
:10035000621F739FB00DA11D621F839FA00D611DC1
:10036000221F749F3327A00D611D231F849F600DE2
:10037000211D822F762F6A2F11249F5750409AF00B
:10038000F1F088234AF0EE0FFF1FBB1F661F771F97
:10039000881F91505040A9F79E3F510580F00C9462
:1003A000E6010C946E015F3FE4F3983ED4F386952A
:1003B00077956795B795F795E7959F5FC1F7FE2B02
:1003C000880F911D9695879597F9089597F99F67DE
:1003D00080E870E060E008959FEF80EC08950024CD
:1003E0000A941616170618060906089500240A949A
:1003F00012161306140605060895092E0394000C20
:1004000011F4882352F0BB0F40F4BF2B11F460FFAE
:1004100004C06F5F7F4F8F4F9F4F0895F894FFCFB9
:00000001FF
