:100000000C942A000C9447000C9447000C94470071
:100010000C9447000C9447000C9447000C94470044
:100020000C9447000C9447000C9447000C94470034
:100030000C9447000C9447000C9447000C94470024
:100040000C9447000C9447000C9447000C94470014
:100050000C94470011241FBECFE5D8E0DEBFCDBF12
:1000600010E0A0E6B0E0EEE2F4E002C005900D92F0
:10007000A836B107D9F720E0A8E6B0E001C01D928C
:10008000A837B207E1F70E9449000C9415020C94BE
:100090000000CF93DF93CDB7DEB70E94540080E617
:1000A00090E00E946500FBCFCF93DF93CDB7DEB722
:1000B00081E390E02FEFFC0120838AE390E02FEFB3
:1000C000FC012083DF91CF910895CF93DF93CDB7CB
:1000D000DEB761970FB6F894DEBF0FBECDBF998B28
:1000E000888B19827AC082E390E02981FC01208309
:1000F00080E090E0A1E6B4E48A839B83AC83BD8377
:1001000020E030E04AE753E46A817B818C819D8165
:100110000E948001DC01CB018E839F83A887B98771
:1001200020E030E040E85FE36E817F81888599853B
:100130000E94FA0088232CF481E090E09B878A8754
:100140003FC020E03FEF4FE757E46E817F81888515
:1001500099850E947B0118164CF520E030E040E2C2
:1001600051E46A817B818C819D810E948001DC0148
:10017000CB01BC01CD010E94FF00DC01CB019B87BC
:100180008A870FC089E190E09D878C878C859D854B
:100190000197F1F79D878C878A859B8501979B87BF
:1001A0008A878A859B85892B69F714C06E817F8138
:1001B000888599850E94FF00DC01CB019B878A8797
:1001C0008A859B859F878E878E859F850197F1F70E
:1001D0009F878E8789818F5F898389818F3008F41B
:1001E00082CF61960FB6F894DEBF0FBECDBFDF9110
:1001F000CF9108950E942E0108F481E008950E9495
:100200005A0188F09F5798F0B92F9927B751B0F04D
:10021000E1F0660F771F881F991F1AF0BA95C9F78A
:1002200014C0B13091F00E947401B1E008950C94B3
:100230007401672F782F8827B85F39F0B93FCCF366
:10024000869577956795B395D9F73EF49095809507
:10025000709561957F4F8F4F9F4F0895990F0008BC
:10026000550FAA0BE0E8FEEF16161706E807F90788
:10027000C0F012161306E407F50798F0621B730B23
:10028000840B950B39F40A2661F0232B242B252BA4
:1002900021F408950A2609F4A140A6958FEF811D47
:1002A000811D089557FD9058440F551F59F05F3F29
:1002B00071F04795880F97FB991F61F09F3F79F088
:1002C00087950895121613061406551FF2CF46950A
:1002D000F1DF08C0161617061806991FF1CF86958C
:1002E0007105610508940895E894BB276627772770
:1002F000CB0197F908950E942E0108F48FEF08951D
:100300000E9493010C9404020E94F60138F00E94AE
:10031000FD0120F0952311F00C94ED010C94F301F4
:1003200011240C9475010E94520170F3959FC1F342
:10033000950F50E0551F629FF001729FBB27F00D93
:10034000B11D639FAA27F00DB11DAA1F649F6627E8
:10035000B00DA11D661F829F2227B00DA11D621F37
:10036000739FB00DA11D621F839FA00D611D221FF1
:10037000749F3327A00D611D231F849F600D211DD5
:10038000822F762F6A2F11249F5750409AF0F1F058
:1003900088234AF0EE0FFF1FBB1F661F771F881FC1
:1003A00091505040A9F79E3F510580F00C94ED010B
:1003B0000C9475015F3FE4F3983ED4F386957795EE
:1003C0006795B795F795E7959F5FC1F7FE2B880F67
:1003D000911D9695879597F9089597F99F6780E8FD
:1003E00070E060E008959FEF80EC089500240A9487
:1003F0001616170618060906089500240A94121600
:100400001306140605060895092E0394000C11F432
:10041000882352F0BB0F40F4BF2B11F460FF04C0DF
:0E0420006F5F7F4F8F4F9F4F0895F894FFCF6F
:08042E00800000000000000145
:00000001FF
